{
  "_format": "hh-sol-artifact-1",
  "contractName": "Moonknight",
  "sourceName": "contracts/Moonknight.sol",
  "abi": [
    {
      "inputs": [
        {
          "internalType": "address[]",
          "name": "_team",
          "type": "address[]"
        },
        {
          "internalType": "uint256[]",
          "name": "_teamShares",
          "type": "uint256[]"
        },
        {
          "internalType": "bytes32",
          "name": "_merkleRoot",
          "type": "bytes32"
        },
        {
          "internalType": "string",
          "name": "_baseURI",
          "type": "string"
        }
      ],
      "stateMutability": "nonpayable",
      "type": "constructor"
    },
    {
      "inputs": [],
      "name": "ApprovalCallerNotOwnerNorApproved",
      "type": "error"
    },
    {
      "inputs": [],
      "name": "ApprovalQueryForNonexistentToken",
      "type": "error"
    },
    {
      "inputs": [],
      "name": "ApproveToCaller",
      "type": "error"
    },
    {
      "inputs": [],
      "name": "BalanceQueryForZeroAddress",
      "type": "error"
    },
    {
      "inputs": [],
      "name": "MintERC2309QuantityExceedsLimit",
      "type": "error"
    },
    {
      "inputs": [],
      "name": "MintToZeroAddress",
      "type": "error"
    },
    {
      "inputs": [],
      "name": "MintZeroQuantity",
      "type": "error"
    },
    {
      "inputs": [],
      "name": "OwnerQueryForNonexistentToken",
      "type": "error"
    },
    {
      "inputs": [],
      "name": "OwnershipNotInitializedForExtraData",
      "type": "error"
    },
    {
      "inputs": [],
      "name": "TransferCallerNotOwnerNorApproved",
      "type": "error"
    },
    {
      "inputs": [],
      "name": "TransferFromIncorrectOwner",
      "type": "error"
    },
    {
      "inputs": [],
      "name": "TransferToNonERC721ReceiverImplementer",
      "type": "error"
    },
    {
      "inputs": [],
      "name": "TransferToZeroAddress",
      "type": "error"
    },
    {
      "inputs": [],
      "name": "URIQueryForNonexistentToken",
      "type": "error"
    },
    {
      "anonymous": false,
      "inputs": [
        {
          "indexed": true,
          "internalType": "address",
          "name": "owner",
          "type": "address"
        },
        {
          "indexed": true,
          "internalType": "address",
          "name": "approved",
          "type": "address"
        },
        {
          "indexed": true,
          "internalType": "uint256",
          "name": "tokenId",
          "type": "uint256"
        }
      ],
      "name": "Approval",
      "type": "event"
    },
    {
      "anonymous": false,
      "inputs": [
        {
          "indexed": true,
          "internalType": "address",
          "name": "owner",
          "type": "address"
        },
        {
          "indexed": true,
          "internalType": "address",
          "name": "operator",
          "type": "address"
        },
        {
          "indexed": false,
          "internalType": "bool",
          "name": "approved",
          "type": "bool"
        }
      ],
      "name": "ApprovalForAll",
      "type": "event"
    },
    {
      "anonymous": false,
      "inputs": [
        {
          "indexed": true,
          "internalType": "uint256",
          "name": "fromTokenId",
          "type": "uint256"
        },
        {
          "indexed": false,
          "internalType": "uint256",
          "name": "toTokenId",
          "type": "uint256"
        },
        {
          "indexed": true,
          "internalType": "address",
          "name": "from",
          "type": "address"
        },
        {
          "indexed": true,
          "internalType": "address",
          "name": "to",
          "type": "address"
        }
      ],
      "name": "ConsecutiveTransfer",
      "type": "event"
    },
    {
      "anonymous": false,
      "inputs": [
        {
          "indexed": true,
          "internalType": "contract IERC20",
          "name": "token",
          "type": "address"
        },
        {
          "indexed": false,
          "internalType": "address",
          "name": "to",
          "type": "address"
        },
        {
          "indexed": false,
          "internalType": "uint256",
          "name": "amount",
          "type": "uint256"
        }
      ],
      "name": "ERC20PaymentReleased",
      "type": "event"
    },
    {
      "anonymous": false,
      "inputs": [
        {
          "indexed": true,
          "internalType": "address",
          "name": "previousOwner",
          "type": "address"
        },
        {
          "indexed": true,
          "internalType": "address",
          "name": "newOwner",
          "type": "address"
        }
      ],
      "name": "OwnershipTransferred",
      "type": "event"
    },
    {
      "anonymous": false,
      "inputs": [
        {
          "indexed": false,
          "internalType": "address",
          "name": "account",
          "type": "address"
        },
        {
          "indexed": false,
          "internalType": "uint256",
          "name": "shares",
          "type": "uint256"
        }
      ],
      "name": "PayeeAdded",
      "type": "event"
    },
    {
      "anonymous": false,
      "inputs": [
        {
          "indexed": false,
          "internalType": "address",
          "name": "from",
          "type": "address"
        },
        {
          "indexed": false,
          "internalType": "uint256",
          "name": "amount",
          "type": "uint256"
        }
      ],
      "name": "PaymentReceived",
      "type": "event"
    },
    {
      "anonymous": false,
      "inputs": [
        {
          "indexed": false,
          "internalType": "address",
          "name": "to",
          "type": "address"
        },
        {
          "indexed": false,
          "internalType": "uint256",
          "name": "amount",
          "type": "uint256"
        }
      ],
      "name": "PaymentReleased",
      "type": "event"
    },
    {
      "anonymous": false,
      "inputs": [
        {
          "indexed": true,
          "internalType": "address",
          "name": "from",
          "type": "address"
        },
        {
          "indexed": true,
          "internalType": "address",
          "name": "to",
          "type": "address"
        },
        {
          "indexed": true,
          "internalType": "uint256",
          "name": "tokenId",
          "type": "uint256"
        }
      ],
      "name": "Transfer",
      "type": "event"
    },
    {
      "inputs": [
        {
          "internalType": "address",
          "name": "",
          "type": "address"
        }
      ],
      "name": "Amount_NFT_PerWallet_MLSALE",
      "outputs": [
        {
          "internalType": "uint256",
          "name": "",
          "type": "uint256"
        }
      ],
      "stateMutability": "view",
      "type": "function"
    },
    {
      "inputs": [
        {
          "internalType": "address",
          "name": "",
          "type": "address"
        }
      ],
      "name": "Amount_NFT_PerWallet_PUBSALE",
      "outputs": [
        {
          "internalType": "uint256",
          "name": "",
          "type": "uint256"
        }
      ],
      "stateMutability": "view",
      "type": "function"
    },
    {
      "inputs": [
        {
          "internalType": "address",
          "name": "to",
          "type": "address"
        },
        {
          "internalType": "uint256",
          "name": "tokenId",
          "type": "uint256"
        }
      ],
      "name": "approve",
      "outputs": [],
      "stateMutability": "nonpayable",
      "type": "function"
    },
    {
      "inputs": [
        {
          "internalType": "address",
          "name": "owner",
          "type": "address"
        }
      ],
      "name": "balanceOf",
      "outputs": [
        {
          "internalType": "uint256",
          "name": "",
          "type": "uint256"
        }
      ],
      "stateMutability": "view",
      "type": "function"
    },
    {
      "inputs": [],
      "name": "baseURI",
      "outputs": [
        {
          "internalType": "string",
          "name": "",
          "type": "string"
        }
      ],
      "stateMutability": "view",
      "type": "function"
    },
    {
      "inputs": [],
      "name": "flipSaleState",
      "outputs": [],
      "stateMutability": "nonpayable",
      "type": "function"
    },
    {
      "inputs": [],
      "name": "flipmlsaleState",
      "outputs": [],
      "stateMutability": "nonpayable",
      "type": "function"
    },
    {
      "inputs": [
        {
          "internalType": "uint256",
          "name": "tokenId",
          "type": "uint256"
        }
      ],
      "name": "getApproved",
      "outputs": [
        {
          "internalType": "address",
          "name": "",
          "type": "address"
        }
      ],
      "stateMutability": "view",
      "type": "function"
    },
    {
      "inputs": [
        {
          "internalType": "address",
          "name": "_to",
          "type": "address"
        },
        {
          "internalType": "uint256",
          "name": "_quantity",
          "type": "uint256"
        }
      ],
      "name": "gift",
      "outputs": [],
      "stateMutability": "nonpayable",
      "type": "function"
    },
    {
      "inputs": [
        {
          "internalType": "address",
          "name": "owner",
          "type": "address"
        },
        {
          "internalType": "address",
          "name": "operator",
          "type": "address"
        }
      ],
      "name": "isApprovedForAll",
      "outputs": [
        {
          "internalType": "bool",
          "name": "",
          "type": "bool"
        }
      ],
      "stateMutability": "view",
      "type": "function"
    },
    {
      "inputs": [],
      "name": "merkleRoot",
      "outputs": [
        {
          "internalType": "bytes32",
          "name": "",
          "type": "bytes32"
        }
      ],
      "stateMutability": "view",
      "type": "function"
    },
    {
      "inputs": [],
      "name": "mlSalePrice",
      "outputs": [
        {
          "internalType": "uint256",
          "name": "",
          "type": "uint256"
        }
      ],
      "stateMutability": "view",
      "type": "function"
    },
    {
      "inputs": [],
      "name": "mlsaleIsActive",
      "outputs": [
        {
          "internalType": "bool",
          "name": "",
          "type": "bool"
        }
      ],
      "stateMutability": "view",
      "type": "function"
    },
    {
      "inputs": [],
      "name": "mlsaleMaxMint",
      "outputs": [
        {
          "internalType": "uint256",
          "name": "",
          "type": "uint256"
        }
      ],
      "stateMutability": "view",
      "type": "function"
    },
    {
      "inputs": [],
      "name": "name",
      "outputs": [
        {
          "internalType": "string",
          "name": "",
          "type": "string"
        }
      ],
      "stateMutability": "view",
      "type": "function"
    },
    {
      "inputs": [],
      "name": "owner",
      "outputs": [
        {
          "internalType": "address",
          "name": "",
          "type": "address"
        }
      ],
      "stateMutability": "view",
      "type": "function"
    },
    {
      "inputs": [
        {
          "internalType": "uint256",
          "name": "tokenId",
          "type": "uint256"
        }
      ],
      "name": "ownerOf",
      "outputs": [
        {
          "internalType": "address",
          "name": "",
          "type": "address"
        }
      ],
      "stateMutability": "view",
      "type": "function"
    },
    {
      "inputs": [
        {
          "internalType": "uint256",
          "name": "index",
          "type": "uint256"
        }
      ],
      "name": "payee",
      "outputs": [
        {
          "internalType": "address",
          "name": "",
          "type": "address"
        }
      ],
      "stateMutability": "view",
      "type": "function"
    },
    {
      "inputs": [
        {
          "internalType": "address",
          "name": "_account",
          "type": "address"
        },
        {
          "internalType": "uint256",
          "name": "_quantity",
          "type": "uint256"
        }
      ],
      "name": "publicSaleMint",
      "outputs": [],
      "stateMutability": "payable",
      "type": "function"
    },
    {
      "inputs": [],
      "name": "publicSalePrice",
      "outputs": [
        {
          "internalType": "uint256",
          "name": "",
          "type": "uint256"
        }
      ],
      "stateMutability": "view",
      "type": "function"
    },
    {
      "inputs": [],
      "name": "publicsaleMaxMint",
      "outputs": [
        {
          "internalType": "uint256",
          "name": "",
          "type": "uint256"
        }
      ],
      "stateMutability": "view",
      "type": "function"
    },
    {
      "inputs": [
        {
          "internalType": "address payable",
          "name": "account",
          "type": "address"
        }
      ],
      "name": "release",
      "outputs": [],
      "stateMutability": "nonpayable",
      "type": "function"
    },
    {
      "inputs": [
        {
          "internalType": "contract IERC20",
          "name": "token",
          "type": "address"
        },
        {
          "internalType": "address",
          "name": "account",
          "type": "address"
        }
      ],
      "name": "release",
      "outputs": [],
      "stateMutability": "nonpayable",
      "type": "function"
    },
    {
      "inputs": [],
      "name": "releaseAll",
      "outputs": [],
      "stateMutability": "nonpayable",
      "type": "function"
    },
    {
      "inputs": [
        {
          "internalType": "contract IERC20",
          "name": "token",
          "type": "address"
        },
        {
          "internalType": "address",
          "name": "account",
          "type": "address"
        }
      ],
      "name": "released",
      "outputs": [
        {
          "internalType": "uint256",
          "name": "",
          "type": "uint256"
        }
      ],
      "stateMutability": "view",
      "type": "function"
    },
    {
      "inputs": [
        {
          "internalType": "address",
          "name": "account",
          "type": "address"
        }
      ],
      "name": "released",
      "outputs": [
        {
          "internalType": "uint256",
          "name": "",
          "type": "uint256"
        }
      ],
      "stateMutability": "view",
      "type": "function"
    },
    {
      "inputs": [],
      "name": "renounceOwnership",
      "outputs": [],
      "stateMutability": "nonpayable",
      "type": "function"
    },
    {
      "inputs": [
        {
          "internalType": "address",
          "name": "from",
          "type": "address"
        },
        {
          "internalType": "address",
          "name": "to",
          "type": "address"
        },
        {
          "internalType": "uint256",
          "name": "tokenId",
          "type": "uint256"
        }
      ],
      "name": "safeTransferFrom",
      "outputs": [],
      "stateMutability": "nonpayable",
      "type": "function"
    },
    {
      "inputs": [
        {
          "internalType": "address",
          "name": "from",
          "type": "address"
        },
        {
          "internalType": "address",
          "name": "to",
          "type": "address"
        },
        {
          "internalType": "uint256",
          "name": "tokenId",
          "type": "uint256"
        },
        {
          "internalType": "bytes",
          "name": "_data",
          "type": "bytes"
        }
      ],
      "name": "safeTransferFrom",
      "outputs": [],
      "stateMutability": "nonpayable",
      "type": "function"
    },
    {
      "inputs": [],
      "name": "saleIsActive",
      "outputs": [
        {
          "internalType": "bool",
          "name": "",
          "type": "bool"
        }
      ],
      "stateMutability": "view",
      "type": "function"
    },
    {
      "inputs": [
        {
          "internalType": "address",
          "name": "operator",
          "type": "address"
        },
        {
          "internalType": "bool",
          "name": "approved",
          "type": "bool"
        }
      ],
      "name": "setApprovalForAll",
      "outputs": [],
      "stateMutability": "nonpayable",
      "type": "function"
    },
    {
      "inputs": [
        {
          "internalType": "string",
          "name": "_baseURI",
          "type": "string"
        }
      ],
      "name": "setBaseUri",
      "outputs": [],
      "stateMutability": "nonpayable",
      "type": "function"
    },
    {
      "inputs": [
        {
          "internalType": "bytes32",
          "name": "_merkleRoot",
          "type": "bytes32"
        }
      ],
      "name": "setMerkleRoot",
      "outputs": [],
      "stateMutability": "nonpayable",
      "type": "function"
    },
    {
      "inputs": [
        {
          "internalType": "address",
          "name": "account",
          "type": "address"
        }
      ],
      "name": "shares",
      "outputs": [
        {
          "internalType": "uint256",
          "name": "",
          "type": "uint256"
        }
      ],
      "stateMutability": "view",
      "type": "function"
    },
    {
      "inputs": [
        {
          "internalType": "bytes4",
          "name": "interfaceId",
          "type": "bytes4"
        }
      ],
      "name": "supportsInterface",
      "outputs": [
        {
          "internalType": "bool",
          "name": "",
          "type": "bool"
        }
      ],
      "stateMutability": "view",
      "type": "function"
    },
    {
      "inputs": [],
      "name": "symbol",
      "outputs": [
        {
          "internalType": "string",
          "name": "",
          "type": "string"
        }
      ],
      "stateMutability": "view",
      "type": "function"
    },
    {
      "inputs": [
        {
          "internalType": "uint256",
          "name": "_tokenId",
          "type": "uint256"
        }
      ],
      "name": "tokenURI",
      "outputs": [
        {
          "internalType": "string",
          "name": "",
          "type": "string"
        }
      ],
      "stateMutability": "view",
      "type": "function"
    },
    {
      "inputs": [
        {
          "internalType": "contract IERC20",
          "name": "token",
          "type": "address"
        }
      ],
      "name": "totalReleased",
      "outputs": [
        {
          "internalType": "uint256",
          "name": "",
          "type": "uint256"
        }
      ],
      "stateMutability": "view",
      "type": "function"
    },
    {
      "inputs": [],
      "name": "totalReleased",
      "outputs": [
        {
          "internalType": "uint256",
          "name": "",
          "type": "uint256"
        }
      ],
      "stateMutability": "view",
      "type": "function"
    },
    {
      "inputs": [],
      "name": "totalShares",
      "outputs": [
        {
          "internalType": "uint256",
          "name": "",
          "type": "uint256"
        }
      ],
      "stateMutability": "view",
      "type": "function"
    },
    {
      "inputs": [],
      "name": "totalSupply",
      "outputs": [
        {
          "internalType": "uint256",
          "name": "",
          "type": "uint256"
        }
      ],
      "stateMutability": "view",
      "type": "function"
    },
    {
      "inputs": [
        {
          "internalType": "address",
          "name": "from",
          "type": "address"
        },
        {
          "internalType": "address",
          "name": "to",
          "type": "address"
        },
        {
          "internalType": "uint256",
          "name": "tokenId",
          "type": "uint256"
        }
      ],
      "name": "transferFrom",
      "outputs": [],
      "stateMutability": "nonpayable",
      "type": "function"
    },
    {
      "inputs": [
        {
          "internalType": "address",
          "name": "newOwner",
          "type": "address"
        }
      ],
      "name": "transferOwnership",
      "outputs": [],
      "stateMutability": "nonpayable",
      "type": "function"
    },
    {
      "inputs": [
        {
          "internalType": "address",
          "name": "_account",
          "type": "address"
        },
        {
          "internalType": "uint256",
          "name": "_quantity",
          "type": "uint256"
        },
        {
          "internalType": "bytes32[]",
          "name": "_proof",
          "type": "bytes32[]"
        }
      ],
      "name": "whitelistMint",
      "outputs": [],
      "stateMutability": "payable",
      "type": "function"
    },
    {
      "stateMutability": "payable",
      "type": "receive"
    }
  ],
  "bytecode": "0x6080604052600a60115560016012556000601360006101000a81548160ff0219169083151502179055506000601360016101000a81548160ff02191690831515021790555060006014556611c37937e080006015553480156200006157600080fd5b5060405162005ef238038062005ef2833981810160405281019062000087919062000a75565b83836040518060400160405280600a81526020017f4d6f6f6e6b6e69676874000000000000000000000000000000000000000000008152506040518060400160405280600381526020017f4d4b4e000000000000000000000000000000000000000000000000000000000081525062000115620001096200029160201b60201c565b6200029960201b60201c565b81600390805190602001906200012d9291906200059c565b508060049080519060200190620001469291906200059c565b50620001576200035d60201b60201c565b60018190555050508051825114620001a6576040517f08c379a00000000000000000000000000000000000000000000000000000000081526004016200019d9062000bcb565b60405180910390fd5b6000825111620001ed576040517f08c379a0000000000000000000000000000000000000000000000000000000008152600401620001e49062000c3d565b60405180910390fd5b60005b82518110156200025c576200024683828151811062000214576200021362000c5f565b5b602002602001015183838151811062000232576200023162000c5f565b5b60200260200101516200036260201b60201c565b8080620002539062000cbd565b915050620001f0565b5050508160168190555080601090805190602001906200027e9291906200059c565b5083516019819055505050505062000fbe565b600033905090565b60008060009054906101000a900473ffffffffffffffffffffffffffffffffffffffff169050816000806101000a81548173ffffffffffffffffffffffffffffffffffffffff021916908373ffffffffffffffffffffffffffffffffffffffff1602179055508173ffffffffffffffffffffffffffffffffffffffff168173ffffffffffffffffffffffffffffffffffffffff167f8be0079c531659141344cd1fd0a4f28419497f9722a3daafe3b4186f6b6457e060405160405180910390a35050565b600090565b600073ffffffffffffffffffffffffffffffffffffffff168273ffffffffffffffffffffffffffffffffffffffff161415620003d5576040517f08c379a0000000000000000000000000000000000000000000000000000000008152600401620003cc9062000d81565b60405180910390fd5b600081116200041b576040517f08c379a0000000000000000000000000000000000000000000000000000000008152600401620004129062000df3565b60405180910390fd5b6000600b60008473ffffffffffffffffffffffffffffffffffffffff1673ffffffffffffffffffffffffffffffffffffffff1681526020019081526020016000205414620004a0576040517f08c379a0000000000000000000000000000000000000000000000000000000008152600401620004979062000e8b565b60405180910390fd5b600d829080600181540180825580915050600190039060005260206000200160009091909190916101000a81548173ffffffffffffffffffffffffffffffffffffffff021916908373ffffffffffffffffffffffffffffffffffffffff16021790555080600b60008473ffffffffffffffffffffffffffffffffffffffff1673ffffffffffffffffffffffffffffffffffffffff168152602001908152602001600020819055508060095462000557919062000ead565b6009819055507f40c340f65e17194d14ddddb073d3c9f888e3cb52b5aae0c6c7706b4fbc905fac82826040516200059092919062000f2c565b60405180910390a15050565b828054620005aa9062000f88565b90600052602060002090601f016020900481019282620005ce57600085556200061a565b82601f10620005e957805160ff19168380011785556200061a565b828001600101855582156200061a579182015b8281111562000619578251825591602001919060010190620005fc565b5b5090506200062991906200062d565b5090565b5b80821115620006485760008160009055506001016200062e565b5090565b6000604051905090565b600080fd5b600080fd5b600080fd5b6000601f19601f8301169050919050565b7f4e487b7100000000000000000000000000000000000000000000000000000000600052604160045260246000fd5b620006b08262000665565b810181811067ffffffffffffffff82111715620006d257620006d162000676565b5b80604052505050565b6000620006e76200064c565b9050620006f58282620006a5565b919050565b600067ffffffffffffffff82111562000718576200071762000676565b5b602082029050602081019050919050565b600080fd5b600073ffffffffffffffffffffffffffffffffffffffff82169050919050565b60006200075b826200072e565b9050919050565b6200076d816200074e565b81146200077957600080fd5b50565b6000815190506200078d8162000762565b92915050565b6000620007aa620007a484620006fa565b620006db565b90508083825260208201905060208402830185811115620007d057620007cf62000729565b5b835b81811015620007fd5780620007e888826200077c565b845260208401935050602081019050620007d2565b5050509392505050565b600082601f8301126200081f576200081e62000660565b5b81516200083184826020860162000793565b91505092915050565b600067ffffffffffffffff82111562000858576200085762000676565b5b602082029050602081019050919050565b6000819050919050565b6200087e8162000869565b81146200088a57600080fd5b50565b6000815190506200089e8162000873565b92915050565b6000620008bb620008b5846200083a565b620006db565b90508083825260208201905060208402830185811115620008e157620008e062000729565b5b835b818110156200090e5780620008f988826200088d565b845260208401935050602081019050620008e3565b5050509392505050565b600082601f83011262000930576200092f62000660565b5b815162000942848260208601620008a4565b91505092915050565b6000819050919050565b62000960816200094b565b81146200096c57600080fd5b50565b600081519050620009808162000955565b92915050565b600080fd5b600067ffffffffffffffff821115620009a957620009a862000676565b5b620009b48262000665565b9050602081019050919050565b60005b83811015620009e1578082015181840152602081019050620009c4565b83811115620009f1576000848401525b50505050565b600062000a0e62000a08846200098b565b620006db565b90508281526020810184848401111562000a2d5762000a2c62000986565b5b62000a3a848285620009c1565b509392505050565b600082601f83011262000a5a5762000a5962000660565b5b815162000a6c848260208601620009f7565b91505092915050565b6000806000806080858703121562000a925762000a9162000656565b5b600085015167ffffffffffffffff81111562000ab35762000ab26200065b565b5b62000ac18782880162000807565b945050602085015167ffffffffffffffff81111562000ae55762000ae46200065b565b5b62000af38782880162000918565b935050604062000b06878288016200096f565b925050606085015167ffffffffffffffff81111562000b2a5762000b296200065b565b5b62000b388782880162000a42565b91505092959194509250565b600082825260208201905092915050565b7f5061796d656e7453706c69747465723a2070617965657320616e64207368617260008201527f6573206c656e677468206d69736d617463680000000000000000000000000000602082015250565b600062000bb360328362000b44565b915062000bc08262000b55565b604082019050919050565b6000602082019050818103600083015262000be68162000ba4565b9050919050565b7f5061796d656e7453706c69747465723a206e6f20706179656573000000000000600082015250565b600062000c25601a8362000b44565b915062000c328262000bed565b602082019050919050565b6000602082019050818103600083015262000c588162000c16565b9050919050565b7f4e487b7100000000000000000000000000000000000000000000000000000000600052603260045260246000fd5b7f4e487b7100000000000000000000000000000000000000000000000000000000600052601160045260246000fd5b600062000cca8262000869565b91507fffffffffffffffffffffffffffffffffffffffffffffffffffffffffffffffff82141562000d005762000cff62000c8e565b5b600182019050919050565b7f5061796d656e7453706c69747465723a206163636f756e74206973207468652060008201527f7a65726f20616464726573730000000000000000000000000000000000000000602082015250565b600062000d69602c8362000b44565b915062000d768262000d0b565b604082019050919050565b6000602082019050818103600083015262000d9c8162000d5a565b9050919050565b7f5061796d656e7453706c69747465723a20736861726573206172652030000000600082015250565b600062000ddb601d8362000b44565b915062000de88262000da3565b602082019050919050565b6000602082019050818103600083015262000e0e8162000dcc565b9050919050565b7f5061796d656e7453706c69747465723a206163636f756e7420616c726561647960008201527f2068617320736861726573000000000000000000000000000000000000000000602082015250565b600062000e73602b8362000b44565b915062000e808262000e15565b604082019050919050565b6000602082019050818103600083015262000ea68162000e64565b9050919050565b600062000eba8262000869565b915062000ec78362000869565b9250827fffffffffffffffffffffffffffffffffffffffffffffffffffffffffffffffff0382111562000eff5762000efe62000c8e565b5b828201905092915050565b62000f15816200074e565b82525050565b62000f268162000869565b82525050565b600060408201905062000f43600083018562000f0a565b62000f52602083018462000f1b565b9392505050565b7f4e487b7100000000000000000000000000000000000000000000000000000000600052602260045260246000fd5b6000600282049050600182168062000fa157607f821691505b6020821081141562000fb85762000fb762000f59565b5b50919050565b614f248062000fce6000396000f3fe60806040526004361061026b5760003560e01c80638b83209b11610144578063c87b56dd116100b6578063e33b7de31161007a578063e33b7de314610956578063e985e9c514610981578063e9f514f2146109be578063eb8d2444146109e9578063f2fde38b14610a14578063f47ee42114610a3d576102ab565b8063c87b56dd1461084b578063cbce4c9714610888578063ce7c2ac2146108b1578063d79779b2146108ee578063d979fa9c1461092b576102ab565b8063a0bcfc7f11610108578063a0bcfc7f14610772578063a22cb4651461079b578063ac5ae11b146107c4578063b88d4fde146107e0578063bec88e2814610809578063c5027fa514610834576102ab565b80638b83209b146106775780638da5cb5b146106b457806395d89b41146106df5780639852595c1461070a5780639b6860c814610747576102ab565b8063406072a9116101dd57806361bdac32116101a157806361bdac32146105555780636352211e146105925780636c0360eb146105cf57806370a08231146105fa578063715018a6146106375780637cb647591461064e576102ab565b8063406072a91461049357806342842e0e146104d057806348b75044146104f95780634b11faaf146105225780635be7fde81461053e576102ab565b8063191655871161022f57806319165587146103a957806323b872dd146103d25780632eb4a7ab146103fb57806333fdc4271461042657806334918dfd146104515780633a98ef3914610468576102ab565b806301ffc9a7146102b057806306fdde03146102ed578063081812fc14610318578063095ea7b31461035557806318160ddd1461037e576102ab565b366102ab576040517f08c379a00000000000000000000000000000000000000000000000000000000081526004016102a290613524565b60405180910390fd5b600080fd5b3480156102bc57600080fd5b506102d760048036038101906102d291906135b0565b610a7a565b6040516102e491906135f8565b60405180910390f35b3480156102f957600080fd5b50610302610b0c565b60405161030f919061369b565b60405180910390f35b34801561032457600080fd5b5061033f600480360381019061033a91906136f3565b610b9e565b60405161034c9190613761565b60405180910390f35b34801561036157600080fd5b5061037c600480360381019061037791906137a8565b610c1d565b005b34801561038a57600080fd5b50610393610d61565b6040516103a091906137f7565b60405180910390f35b3480156103b557600080fd5b506103d060048036038101906103cb9190613850565b610d78565b005b3480156103de57600080fd5b506103f960048036038101906103f4919061387d565b610f23565b005b34801561040757600080fd5b50610410611248565b60405161041d91906138e9565b60405180910390f35b34801561043257600080fd5b5061043b61124e565b60405161044891906137f7565b60405180910390f35b34801561045d57600080fd5b50610466611254565b005b34801561047457600080fd5b5061047d6112fc565b60405161048a91906137f7565b60405180910390f35b34801561049f57600080fd5b506104ba60048036038101906104b59190613942565b611306565b6040516104c791906137f7565b60405180910390f35b3480156104dc57600080fd5b506104f760048036038101906104f2919061387d565b61138d565b005b34801561050557600080fd5b50610520600480360381019061051b9190613942565b6113ad565b005b61053c600480360381019061053791906139e7565b611666565b005b34801561054a57600080fd5b5061055361190e565b005b34801561056157600080fd5b5061057c60048036038101906105779190613a5b565b611942565b60405161058991906137f7565b60405180910390f35b34801561059e57600080fd5b506105b960048036038101906105b491906136f3565b61195a565b6040516105c69190613761565b60405180910390f35b3480156105db57600080fd5b506105e461196c565b6040516105f1919061369b565b60405180910390f35b34801561060657600080fd5b50610621600480360381019061061c9190613a5b565b6119fa565b60405161062e91906137f7565b60405180910390f35b34801561064357600080fd5b5061064c611ab3565b005b34801561065a57600080fd5b5061067560048036038101906106709190613ab4565b611b3b565b005b34801561068357600080fd5b5061069e600480360381019061069991906136f3565b611bc1565b6040516106ab9190613761565b60405180910390f35b3480156106c057600080fd5b506106c9611c09565b6040516106d69190613761565b60405180910390f35b3480156106eb57600080fd5b506106f4611c32565b604051610701919061369b565b60405180910390f35b34801561071657600080fd5b50610731600480360381019061072c9190613a5b565b611cc4565b60405161073e91906137f7565b60405180910390f35b34801561075357600080fd5b5061075c611d0d565b60405161076991906137f7565b60405180910390f35b34801561077e57600080fd5b5061079960048036038101906107949190613c11565b611d13565b005b3480156107a757600080fd5b506107c260048036038101906107bd9190613c86565b611da9565b005b6107de60048036038101906107d991906137a8565b611f21565b005b3480156107ec57600080fd5b5061080760048036038101906108029190613d67565b612178565b005b34801561081557600080fd5b5061081e6121eb565b60405161082b91906137f7565b60405180910390f35b34801561084057600080fd5b506108496121f1565b005b34801561085757600080fd5b50610872600480360381019061086d91906136f3565b612299565b60405161087f919061369b565b60405180910390f35b34801561089457600080fd5b506108af60048036038101906108aa91906137a8565b612315565b005b3480156108bd57600080fd5b506108d860048036038101906108d39190613a5b565b6123f6565b6040516108e591906137f7565b60405180910390f35b3480156108fa57600080fd5b5061091560048036038101906109109190613dea565b61243f565b60405161092291906137f7565b60405180910390f35b34801561093757600080fd5b50610940612488565b60405161094d91906135f8565b60405180910390f35b34801561096257600080fd5b5061096b61249b565b60405161097891906137f7565b60405180910390f35b34801561098d57600080fd5b506109a860048036038101906109a39190613e17565b6124a5565b6040516109b591906135f8565b60405180910390f35b3480156109ca57600080fd5b506109d3612539565b6040516109e091906137f7565b60405180910390f35b3480156109f557600080fd5b506109fe61253f565b604051610a0b91906135f8565b60405180910390f35b348015610a2057600080fd5b50610a3b6004803603810190610a369190613a5b565b612552565b005b348015610a4957600080fd5b50610a646004803603810190610a5f9190613a5b565b61264a565b604051610a7191906137f7565b60405180910390f35b60006301ffc9a760e01b827bffffffffffffffffffffffffffffffffffffffffffffffffffffffff19161480610ad557506380ac58cd60e01b827bffffffffffffffffffffffffffffffffffffffffffffffffffffffff1916145b80610b055750635b5e139f60e01b827bffffffffffffffffffffffffffffffffffffffffffffffffffffffff1916145b9050919050565b606060038054610b1b90613e86565b80601f0160208091040260200160405190810160405280929190818152602001828054610b4790613e86565b8015610b945780601f10610b6957610100808354040283529160200191610b94565b820191906000526020600020905b815481529060010190602001808311610b7757829003601f168201915b5050505050905090565b6000610ba982612662565b610bdf576040517fcf4700e400000000000000000000000000000000000000000000000000000000815260040160405180910390fd5b6007600083815260200190815260200160002060000160009054906101000a900473ffffffffffffffffffffffffffffffffffffffff169050919050565b6000610c288261195a565b90508073ffffffffffffffffffffffffffffffffffffffff16610c496126c1565b73ffffffffffffffffffffffffffffffffffffffff1614610cac57610c7581610c706126c1565b6124a5565b610cab576040517fcfb3b94200000000000000000000000000000000000000000000000000000000815260040160405180910390fd5b5b826007600084815260200190815260200160002060000160006101000a81548173ffffffffffffffffffffffffffffffffffffffff021916908373ffffffffffffffffffffffffffffffffffffffff160217905550818373ffffffffffffffffffffffffffffffffffffffff168273ffffffffffffffffffffffffffffffffffffffff167f8c5be1e5ebec7d5bd14f71427d1e84f3dd0314c0f7b2291e5b200ac8c7c3b92560405160405180910390a4505050565b6000610d6b6126c9565b6002546001540303905090565b6000600b60008373ffffffffffffffffffffffffffffffffffffffff1673ffffffffffffffffffffffffffffffffffffffff1681526020019081526020016000205411610dfa576040517f08c379a0000000000000000000000000000000000000000000000000000000008152600401610df190613f2a565b60405180910390fd5b6000610e0461249b565b47610e0f9190613f79565b90506000610e268383610e2186611cc4565b6126ce565b90506000811415610e6c576040517f08c379a0000000000000000000000000000000000000000000000000000000008152600401610e6390614041565b60405180910390fd5b80600c60008573ffffffffffffffffffffffffffffffffffffffff1673ffffffffffffffffffffffffffffffffffffffff1681526020019081526020016000206000828254610ebb9190613f79565b9250508190555080600a6000828254610ed49190613f79565b92505081905550610ee5838261273c565b7fdf20fd1e76bc69d672e4814fafb2c449bba3a5369d8359adf9e05e6fde87b0568382604051610f169291906140c0565b60405180910390a1505050565b6000610f2e82612830565b90508373ffffffffffffffffffffffffffffffffffffffff168173ffffffffffffffffffffffffffffffffffffffff1614610f95576040517fa114810000000000000000000000000000000000000000000000000000000000815260040160405180910390fd5b600080610fa1846128fe565b91509150610fb78187610fb26126c1565b612925565b61100357610fcc86610fc76126c1565b6124a5565b611002576040517f59c896be00000000000000000000000000000000000000000000000000000000815260040160405180910390fd5b5b600073ffffffffffffffffffffffffffffffffffffffff168573ffffffffffffffffffffffffffffffffffffffff16141561106a576040517fea553b3400000000000000000000000000000000000000000000000000000000815260040160405180910390fd5b6110778686866001612969565b801561108257600082555b600660008773ffffffffffffffffffffffffffffffffffffffff1673ffffffffffffffffffffffffffffffffffffffff168152602001908152602001600020600081546001900391905081905550600660008673ffffffffffffffffffffffffffffffffffffffff1673ffffffffffffffffffffffffffffffffffffffff16815260200190815260200160002060008154600101919050819055506111508561112c88888761296f565b7c020000000000000000000000000000000000000000000000000000000017612997565b600560008681526020019081526020016000208190555060007c0200000000000000000000000000000000000000000000000000000000841614156111d85760006001850190506000600560008381526020019081526020016000205414156111d65760015481146111d5578360056000838152602001908152602001600020819055505b5b505b838573ffffffffffffffffffffffffffffffffffffffff168773ffffffffffffffffffffffffffffffffffffffff167fddf252ad1be2c89b69c2b068fc378daa952ba7f163c4a11628f55a4df523b3ef60405160405180910390a461124086868660016129c2565b505050505050565b60165481565b60115481565b61125c6129c8565b73ffffffffffffffffffffffffffffffffffffffff1661127a611c09565b73ffffffffffffffffffffffffffffffffffffffff16146112d0576040517f08c379a00000000000000000000000000000000000000000000000000000000081526004016112c790614135565b60405180910390fd5b601360009054906101000a900460ff1615601360006101000a81548160ff021916908315150217905550565b6000600954905090565b6000600f60008473ffffffffffffffffffffffffffffffffffffffff1673ffffffffffffffffffffffffffffffffffffffff16815260200190815260200160002060008373ffffffffffffffffffffffffffffffffffffffff1673ffffffffffffffffffffffffffffffffffffffff16815260200190815260200160002054905092915050565b6113a883838360405180602001604052806000815250612178565b505050565b6000600b60008373ffffffffffffffffffffffffffffffffffffffff1673ffffffffffffffffffffffffffffffffffffffff168152602001908152602001600020541161142f576040517f08c379a000000000000000000000000000000000000000000000000000000000815260040161142690613f2a565b60405180910390fd5b600061143a8361243f565b8373ffffffffffffffffffffffffffffffffffffffff166370a08231306040518263ffffffff1660e01b81526004016114739190613761565b602060405180830381865afa158015611490573d6000803e3d6000fd5b505050506040513d601f19601f820116820180604052508101906114b4919061416a565b6114be9190613f79565b905060006114d683836114d18787611306565b6126ce565b9050600081141561151c576040517f08c379a000000000000000000000000000000000000000000000000000000000815260040161151390614041565b60405180910390fd5b80600f60008673ffffffffffffffffffffffffffffffffffffffff1673ffffffffffffffffffffffffffffffffffffffff16815260200190815260200160002060008573ffffffffffffffffffffffffffffffffffffffff1673ffffffffffffffffffffffffffffffffffffffff16815260200190815260200160002060008282546115a89190613f79565b9250508190555080600e60008673ffffffffffffffffffffffffffffffffffffffff1673ffffffffffffffffffffffffffffffffffffffff16815260200190815260200160002060008282546115fe9190613f79565b925050819055506116108484836129d0565b8373ffffffffffffffffffffffffffffffffffffffff167f3be5b7a71e84ed12875d241991c70855ac5817d847039e17a9d895c1ceb0f18a8483604051611658929190614197565b60405180910390a250505050565b3373ffffffffffffffffffffffffffffffffffffffff163273ffffffffffffffffffffffffffffffffffffffff16146116d4576040517f08c379a00000000000000000000000000000000000000000000000000000000081526004016116cb9061420c565b60405180910390fd5b60006014549050601360019054906101000a900460ff1661172a576040517f08c379a00000000000000000000000000000000000000000000000000000000081526004016117219061429e565b60405180910390fd5b611735338484612a56565b611774576040517f08c379a000000000000000000000000000000000000000000000000000000000815260040161176b9061430a565b60405180910390fd5b600184601760003373ffffffffffffffffffffffffffffffffffffffff1673ffffffffffffffffffffffffffffffffffffffff168152602001908152602001600020546117c19190613f79565b1115611802576040517f08c379a00000000000000000000000000000000000000000000000000000000081526004016117f99061439c565b60405180910390fd5b6103e88461180e610d61565b6118189190613f79565b1115611859576040517f08c379a000000000000000000000000000000000000000000000000000000000815260040161185090614408565b60405180910390fd5b83816118659190614428565b3410156118a7576040517f08c379a000000000000000000000000000000000000000000000000000000000815260040161189e906144ce565b60405180910390fd5b83601760003373ffffffffffffffffffffffffffffffffffffffff1673ffffffffffffffffffffffffffffffffffffffff16815260200190815260200160002060008282546118f69190613f79565b925050819055506119078585612ab4565b5050505050565b60005b60195481101561193f5761192c61192782611bc1565b610d78565b8080611937906144ee565b915050611911565b50565b60186020528060005260406000206000915090505481565b600061196582612830565b9050919050565b6010805461197990613e86565b80601f01602080910402602001604051908101604052809291908181526020018280546119a590613e86565b80156119f25780601f106119c7576101008083540402835291602001916119f2565b820191906000526020600020905b8154815290600101906020018083116119d557829003601f168201915b505050505081565b60008073ffffffffffffffffffffffffffffffffffffffff168273ffffffffffffffffffffffffffffffffffffffff161415611a62576040517f8f4eb60400000000000000000000000000000000000000000000000000000000815260040160405180910390fd5b67ffffffffffffffff600660008473ffffffffffffffffffffffffffffffffffffffff1673ffffffffffffffffffffffffffffffffffffffff16815260200190815260200160002054169050919050565b611abb6129c8565b73ffffffffffffffffffffffffffffffffffffffff16611ad9611c09565b73ffffffffffffffffffffffffffffffffffffffff1614611b2f576040517f08c379a0000000000000000000000000000000000000000000000000000000008152600401611b2690614135565b60405180910390fd5b611b396000612ad2565b565b611b436129c8565b73ffffffffffffffffffffffffffffffffffffffff16611b61611c09565b73ffffffffffffffffffffffffffffffffffffffff1614611bb7576040517f08c379a0000000000000000000000000000000000000000000000000000000008152600401611bae90614135565b60405180910390fd5b8060168190555050565b6000600d8281548110611bd757611bd6614537565b5b9060005260206000200160009054906101000a900473ffffffffffffffffffffffffffffffffffffffff169050919050565b60008060009054906101000a900473ffffffffffffffffffffffffffffffffffffffff16905090565b606060048054611c4190613e86565b80601f0160208091040260200160405190810160405280929190818152602001828054611c6d90613e86565b8015611cba5780601f10611c8f57610100808354040283529160200191611cba565b820191906000526020600020905b815481529060010190602001808311611c9d57829003601f168201915b5050505050905090565b6000600c60008373ffffffffffffffffffffffffffffffffffffffff1673ffffffffffffffffffffffffffffffffffffffff168152602001908152602001600020549050919050565b60155481565b611d1b6129c8565b73ffffffffffffffffffffffffffffffffffffffff16611d39611c09565b73ffffffffffffffffffffffffffffffffffffffff1614611d8f576040517f08c379a0000000000000000000000000000000000000000000000000000000008152600401611d8690614135565b60405180910390fd5b8060109080519060200190611da5929190613424565b5050565b611db16126c1565b73ffffffffffffffffffffffffffffffffffffffff168273ffffffffffffffffffffffffffffffffffffffff161415611e16576040517fb06307db00000000000000000000000000000000000000000000000000000000815260040160405180910390fd5b8060086000611e236126c1565b73ffffffffffffffffffffffffffffffffffffffff1673ffffffffffffffffffffffffffffffffffffffff16815260200190815260200160002060008473ffffffffffffffffffffffffffffffffffffffff1673ffffffffffffffffffffffffffffffffffffffff16815260200190815260200160002060006101000a81548160ff0219169083151502179055508173ffffffffffffffffffffffffffffffffffffffff16611ed06126c1565b73ffffffffffffffffffffffffffffffffffffffff167f17307eab39ab6107e8899845ad3d59bd9653f200f220920489ca2b5937696c3183604051611f1591906135f8565b60405180910390a35050565b3373ffffffffffffffffffffffffffffffffffffffff163273ffffffffffffffffffffffffffffffffffffffff1614611f8f576040517f08c379a0000000000000000000000000000000000000000000000000000000008152600401611f869061420c565b60405180910390fd5b600060155490506000811415611fda576040517f08c379a0000000000000000000000000000000000000000000000000000000008152600401611fd1906145b2565b60405180910390fd5b601360009054906101000a900460ff16612029576040517f08c379a00000000000000000000000000000000000000000000000000000000081526004016120209061461e565b60405180910390fd5b6113886103e86120399190613f79565b82612042610d61565b61204c9190613f79565b111561208d576040517f08c379a000000000000000000000000000000000000000000000000000000000815260040161208490614408565b60405180910390fd5b600a82601860003373ffffffffffffffffffffffffffffffffffffffff1673ffffffffffffffffffffffffffffffffffffffff168152602001908152602001600020546120da9190613f79565b111561211b576040517f08c379a0000000000000000000000000000000000000000000000000000000008152600401612112906146b0565b60405180910390fd5b81816121279190614428565b341015612169576040517f08c379a0000000000000000000000000000000000000000000000000000000008152600401612160906144ce565b60405180910390fd5b6121738383612ab4565b505050565b612183848484610f23565b60008373ffffffffffffffffffffffffffffffffffffffff163b146121e5576121ae84848484612b96565b6121e4576040517fd1a57ed600000000000000000000000000000000000000000000000000000000815260040160405180910390fd5b5b50505050565b60145481565b6121f96129c8565b73ffffffffffffffffffffffffffffffffffffffff16612217611c09565b73ffffffffffffffffffffffffffffffffffffffff161461226d576040517f08c379a000000000000000000000000000000000000000000000000000000000815260040161226490614135565b60405180910390fd5b601360019054906101000a900460ff1615601360016101000a81548160ff021916908315150217905550565b60606122a482612662565b6122e3576040517f08c379a00000000000000000000000000000000000000000000000000000000081526004016122da9061471c565b60405180910390fd5b60106122ee83612ce7565b6040516020016122ff929190614858565b6040516020818303038152906040529050919050565b61231d6129c8565b73ffffffffffffffffffffffffffffffffffffffff1661233b611c09565b73ffffffffffffffffffffffffffffffffffffffff1614612391576040517f08c379a000000000000000000000000000000000000000000000000000000000815260040161238890614135565b60405180910390fd5b611a0a8161239d610d61565b6123a79190613f79565b11156123e8576040517f08c379a00000000000000000000000000000000000000000000000000000000081526004016123df906148d3565b60405180910390fd5b6123f28282612ab4565b5050565b6000600b60008373ffffffffffffffffffffffffffffffffffffffff1673ffffffffffffffffffffffffffffffffffffffff168152602001908152602001600020549050919050565b6000600e60008373ffffffffffffffffffffffffffffffffffffffff1673ffffffffffffffffffffffffffffffffffffffff168152602001908152602001600020549050919050565b601360019054906101000a900460ff1681565b6000600a54905090565b6000600860008473ffffffffffffffffffffffffffffffffffffffff1673ffffffffffffffffffffffffffffffffffffffff16815260200190815260200160002060008373ffffffffffffffffffffffffffffffffffffffff1673ffffffffffffffffffffffffffffffffffffffff16815260200190815260200160002060009054906101000a900460ff16905092915050565b60125481565b601360009054906101000a900460ff1681565b61255a6129c8565b73ffffffffffffffffffffffffffffffffffffffff16612578611c09565b73ffffffffffffffffffffffffffffffffffffffff16146125ce576040517f08c379a00000000000000000000000000000000000000000000000000000000081526004016125c590614135565b60405180910390fd5b600073ffffffffffffffffffffffffffffffffffffffff168173ffffffffffffffffffffffffffffffffffffffff16141561263e576040517f08c379a000000000000000000000000000000000000000000000000000000000815260040161263590614965565b60405180910390fd5b61264781612ad2565b50565b60176020528060005260406000206000915090505481565b60008161266d6126c9565b1115801561267c575060015482105b80156126ba575060007c0100000000000000000000000000000000000000000000000000000000600560008581526020019081526020016000205416145b9050919050565b600033905090565b600090565b600081600954600b60008773ffffffffffffffffffffffffffffffffffffffff1673ffffffffffffffffffffffffffffffffffffffff168152602001908152602001600020548561271f9190614428565b61272991906149b4565b61273391906149e5565b90509392505050565b8047101561277f576040517f08c379a000000000000000000000000000000000000000000000000000000000815260040161277690614a65565b60405180910390fd5b60008273ffffffffffffffffffffffffffffffffffffffff16826040516127a590614ab6565b60006040518083038185875af1925050503d80600081146127e2576040519150601f19603f3d011682016040523d82523d6000602084013e6127e7565b606091505b505090508061282b576040517f08c379a000000000000000000000000000000000000000000000000000000000815260040161282290614b3d565b60405180910390fd5b505050565b6000808290508061283f6126c9565b116128c7576001548110156128c65760006005600083815260200190815260200160002054905060007c0100000000000000000000000000000000000000000000000000000000821614156128c4575b60008114156128ba57600560008360019003935083815260200190815260200160002054905061288f565b80925050506128f9565b505b5b6040517fdf2d9b4200000000000000000000000000000000000000000000000000000000815260040160405180910390fd5b919050565b60008060006007600085815260200190815260200160002090508092508254915050915091565b600073ffffffffffffffffffffffffffffffffffffffff8316925073ffffffffffffffffffffffffffffffffffffffff821691508382148383141790509392505050565b50505050565b60008060e883901c905060e8612986868684612e48565b62ffffff16901b9150509392505050565b600073ffffffffffffffffffffffffffffffffffffffff83169250814260a01b178317905092915050565b50505050565b600033905090565b612a518363a9059cbb60e01b84846040516024016129ef929190614197565b604051602081830303815290604052907bffffffffffffffffffffffffffffffffffffffffffffffffffffffff19166020820180517bffffffffffffffffffffffffffffffffffffffffffffffffffffffff8381831617835250505050612e51565b505050565b6000612aab612a6485612f18565b848480806020026020016040519081016040528093929190818152602001838360200280828437600081840152601f19601f82011690508083019250505050505050612f48565b90509392505050565b612ace828260405180602001604052806000815250612f5f565b5050565b60008060009054906101000a900473ffffffffffffffffffffffffffffffffffffffff169050816000806101000a81548173ffffffffffffffffffffffffffffffffffffffff021916908373ffffffffffffffffffffffffffffffffffffffff1602179055508173ffffffffffffffffffffffffffffffffffffffff168173ffffffffffffffffffffffffffffffffffffffff167f8be0079c531659141344cd1fd0a4f28419497f9722a3daafe3b4186f6b6457e060405160405180910390a35050565b60008373ffffffffffffffffffffffffffffffffffffffff1663150b7a02612bbc6126c1565b8786866040518563ffffffff1660e01b8152600401612bde9493929190614bb2565b6020604051808303816000875af1925050508015612c1a57506040513d601f19601f82011682018060405250810190612c179190614c13565b60015b612c94573d8060008114612c4a576040519150601f19603f3d011682016040523d82523d6000602084013e612c4f565b606091505b50600081511415612c8c576040517fd1a57ed600000000000000000000000000000000000000000000000000000000815260040160405180910390fd5b805181602001fd5b63150b7a0260e01b7bffffffffffffffffffffffffffffffffffffffffffffffffffffffff1916817bffffffffffffffffffffffffffffffffffffffffffffffffffffffff191614915050949350505050565b60606000821415612d2f576040518060400160405280600181526020017f30000000000000000000000000000000000000000000000000000000000000008152509050612e43565b600082905060005b60008214612d61578080612d4a906144ee565b915050600a82612d5a91906149b4565b9150612d37565b60008167ffffffffffffffff811115612d7d57612d7c613ae6565b5b6040519080825280601f01601f191660200182016040528015612daf5781602001600182028036833780820191505090505b5090505b60008514612e3c57600182612dc891906149e5565b9150600a85612dd79190614c40565b6030612de39190613f79565b60f81b818381518110612df957612df8614537565b5b60200101907effffffffffffffffffffffffffffffffffffffffffffffffffffffffffffff1916908160001a905350600a85612e3591906149b4565b9450612db3565b8093505050505b919050565b60009392505050565b6000612eb3826040518060400160405280602081526020017f5361666545524332303a206c6f772d6c6576656c2063616c6c206661696c65648152508573ffffffffffffffffffffffffffffffffffffffff16612ffd9092919063ffffffff16565b9050600081511115612f135780806020019051810190612ed39190614c86565b612f12576040517f08c379a0000000000000000000000000000000000000000000000000000000008152600401612f0990614d25565b60405180910390fd5b5b505050565b600081604051602001612f2b9190614d8d565b604051602081830303815290604052805190602001209050919050565b6000612f578260165485613015565b905092915050565b612f69838361302c565b60008373ffffffffffffffffffffffffffffffffffffffff163b14612ff85760006001549050600083820390505b612faa6000868380600101945086612b96565b612fe0576040517fd1a57ed600000000000000000000000000000000000000000000000000000000815260040160405180910390fd5b818110612f97578160015414612ff557600080fd5b50505b505050565b606061300c84846000856131ea565b90509392505050565b60008261302285846132fe565b1490509392505050565b60006001549050600082141561306e576040517fb562e8dd00000000000000000000000000000000000000000000000000000000815260040160405180910390fd5b61307b6000848385612969565b600160406001901b178202600660008573ffffffffffffffffffffffffffffffffffffffff1673ffffffffffffffffffffffffffffffffffffffff168152602001908152602001600020600082825401925050819055506130f2836130e3600086600061296f565b6130ec85613373565b17612997565b6005600083815260200190815260200160002081905550600080838301905073ffffffffffffffffffffffffffffffffffffffff85169150828260007fddf252ad1be2c89b69c2b068fc378daa952ba7f163c4a11628f55a4df523b3ef600080a4600183015b81811461319357808360007fddf252ad1be2c89b69c2b068fc378daa952ba7f163c4a11628f55a4df523b3ef600080a4600181019050613158565b5060008214156131cf576040517f2e07630000000000000000000000000000000000000000000000000000000000815260040160405180910390fd5b8060018190555050506131e560008483856129c2565b505050565b60608247101561322f576040517f08c379a000000000000000000000000000000000000000000000000000000000815260040161322690614e1a565b60405180910390fd5b61323885613383565b613277576040517f08c379a000000000000000000000000000000000000000000000000000000000815260040161326e90614e86565b60405180910390fd5b6000808673ffffffffffffffffffffffffffffffffffffffff1685876040516132a09190614ed7565b60006040518083038185875af1925050503d80600081146132dd576040519150601f19603f3d011682016040523d82523d6000602084013e6132e2565b606091505b50915091506132f28282866133a6565b92505050949350505050565b60008082905060005b845181101561336857600085828151811061332557613324614537565b5b6020026020010151905080831161334757613340838261340d565b9250613354565b613351818461340d565b92505b508080613360906144ee565b915050613307565b508091505092915050565b60006001821460e11b9050919050565b6000808273ffffffffffffffffffffffffffffffffffffffff163b119050919050565b606083156133b657829050613406565b6000835111156133c95782518084602001fd5b816040517f08c379a00000000000000000000000000000000000000000000000000000000081526004016133fd919061369b565b60405180910390fd5b9392505050565b600082600052816020526040600020905092915050565b82805461343090613e86565b90600052602060002090601f0160209004810192826134525760008555613499565b82601f1061346b57805160ff1916838001178555613499565b82800160010185558215613499579182015b8281111561349857825182559160200191906001019061347d565b5b5090506134a691906134aa565b5090565b5b808211156134c35760008160009055506001016134ab565b5090565b600082825260208201905092915050565b7f4f6e6c7920696620796f75206d696e7400000000000000000000000000000000600082015250565b600061350e6010836134c7565b9150613519826134d8565b602082019050919050565b6000602082019050818103600083015261353d81613501565b9050919050565b6000604051905090565b600080fd5b600080fd5b60007fffffffff0000000000000000000000000000000000000000000000000000000082169050919050565b61358d81613558565b811461359857600080fd5b50565b6000813590506135aa81613584565b92915050565b6000602082840312156135c6576135c561354e565b5b60006135d48482850161359b565b91505092915050565b60008115159050919050565b6135f2816135dd565b82525050565b600060208201905061360d60008301846135e9565b92915050565b600081519050919050565b60005b8381101561363c578082015181840152602081019050613621565b8381111561364b576000848401525b50505050565b6000601f19601f8301169050919050565b600061366d82613613565b61367781856134c7565b935061368781856020860161361e565b61369081613651565b840191505092915050565b600060208201905081810360008301526136b58184613662565b905092915050565b6000819050919050565b6136d0816136bd565b81146136db57600080fd5b50565b6000813590506136ed816136c7565b92915050565b6000602082840312156137095761370861354e565b5b6000613717848285016136de565b91505092915050565b600073ffffffffffffffffffffffffffffffffffffffff82169050919050565b600061374b82613720565b9050919050565b61375b81613740565b82525050565b60006020820190506137766000830184613752565b92915050565b61378581613740565b811461379057600080fd5b50565b6000813590506137a28161377c565b92915050565b600080604083850312156137bf576137be61354e565b5b60006137cd85828601613793565b92505060206137de858286016136de565b9150509250929050565b6137f1816136bd565b82525050565b600060208201905061380c60008301846137e8565b92915050565b600061381d82613720565b9050919050565b61382d81613812565b811461383857600080fd5b50565b60008135905061384a81613824565b92915050565b6000602082840312156138665761386561354e565b5b60006138748482850161383b565b91505092915050565b6000806000606084860312156138965761389561354e565b5b60006138a486828701613793565b93505060206138b586828701613793565b92505060406138c6868287016136de565b9150509250925092565b6000819050919050565b6138e3816138d0565b82525050565b60006020820190506138fe60008301846138da565b92915050565b600061390f82613740565b9050919050565b61391f81613904565b811461392a57600080fd5b50565b60008135905061393c81613916565b92915050565b600080604083850312156139595761395861354e565b5b60006139678582860161392d565b925050602061397885828601613793565b9150509250929050565b600080fd5b600080fd5b600080fd5b60008083601f8401126139a7576139a6613982565b5b8235905067ffffffffffffffff8111156139c4576139c3613987565b5b6020830191508360208202830111156139e0576139df61398c565b5b9250929050565b60008060008060608587031215613a0157613a0061354e565b5b6000613a0f87828801613793565b9450506020613a20878288016136de565b935050604085013567ffffffffffffffff811115613a4157613a40613553565b5b613a4d87828801613991565b925092505092959194509250565b600060208284031215613a7157613a7061354e565b5b6000613a7f84828501613793565b91505092915050565b613a91816138d0565b8114613a9c57600080fd5b50565b600081359050613aae81613a88565b92915050565b600060208284031215613aca57613ac961354e565b5b6000613ad884828501613a9f565b91505092915050565b600080fd5b7f4e487b7100000000000000000000000000000000000000000000000000000000600052604160045260246000fd5b613b1e82613651565b810181811067ffffffffffffffff82111715613b3d57613b3c613ae6565b5b80604052505050565b6000613b50613544565b9050613b5c8282613b15565b919050565b600067ffffffffffffffff821115613b7c57613b7b613ae6565b5b613b8582613651565b9050602081019050919050565b82818337600083830152505050565b6000613bb4613baf84613b61565b613b46565b905082815260208101848484011115613bd057613bcf613ae1565b5b613bdb848285613b92565b509392505050565b600082601f830112613bf857613bf7613982565b5b8135613c08848260208601613ba1565b91505092915050565b600060208284031215613c2757613c2661354e565b5b600082013567ffffffffffffffff811115613c4557613c44613553565b5b613c5184828501613be3565b91505092915050565b613c63816135dd565b8114613c6e57600080fd5b50565b600081359050613c8081613c5a565b92915050565b60008060408385031215613c9d57613c9c61354e565b5b6000613cab85828601613793565b9250506020613cbc85828601613c71565b9150509250929050565b600067ffffffffffffffff821115613ce157613ce0613ae6565b5b613cea82613651565b9050602081019050919050565b6000613d0a613d0584613cc6565b613b46565b905082815260208101848484011115613d2657613d25613ae1565b5b613d31848285613b92565b509392505050565b600082601f830112613d4e57613d4d613982565b5b8135613d5e848260208601613cf7565b91505092915050565b60008060008060808587031215613d8157613d8061354e565b5b6000613d8f87828801613793565b9450506020613da087828801613793565b9350506040613db1878288016136de565b925050606085013567ffffffffffffffff811115613dd257613dd1613553565b5b613dde87828801613d39565b91505092959194509250565b600060208284031215613e0057613dff61354e565b5b6000613e0e8482850161392d565b91505092915050565b60008060408385031215613e2e57613e2d61354e565b5b6000613e3c85828601613793565b9250506020613e4d85828601613793565b9150509250929050565b7f4e487b7100000000000000000000000000000000000000000000000000000000600052602260045260246000fd5b60006002820490506001821680613e9e57607f821691505b60208210811415613eb257613eb1613e57565b5b50919050565b7f5061796d656e7453706c69747465723a206163636f756e7420686173206e6f2060008201527f7368617265730000000000000000000000000000000000000000000000000000602082015250565b6000613f146026836134c7565b9150613f1f82613eb8565b604082019050919050565b60006020820190508181036000830152613f4381613f07565b9050919050565b7f4e487b7100000000000000000000000000000000000000000000000000000000600052601160045260246000fd5b6000613f84826136bd565b9150613f8f836136bd565b9250827fffffffffffffffffffffffffffffffffffffffffffffffffffffffffffffffff03821115613fc457613fc3613f4a565b5b828201905092915050565b7f5061796d656e7453706c69747465723a206163636f756e74206973206e6f742060008201527f647565207061796d656e74000000000000000000000000000000000000000000602082015250565b600061402b602b836134c7565b915061403682613fcf565b604082019050919050565b6000602082019050818103600083015261405a8161401e565b9050919050565b6000819050919050565b600061408661408161407c84613720565b614061565b613720565b9050919050565b60006140988261406b565b9050919050565b60006140aa8261408d565b9050919050565b6140ba8161409f565b82525050565b60006040820190506140d560008301856140b1565b6140e260208301846137e8565b9392505050565b7f4f776e61626c653a2063616c6c6572206973206e6f7420746865206f776e6572600082015250565b600061411f6020836134c7565b915061412a826140e9565b602082019050919050565b6000602082019050818103600083015261414e81614112565b9050919050565b600081519050614164816136c7565b92915050565b6000602082840312156141805761417f61354e565b5b600061418e84828501614155565b91505092915050565b60006040820190506141ac6000830185613752565b6141b960208301846137e8565b9392505050565b7f5468652063616c6c657220697320616e6f7468657220636f6e74726163740000600082015250565b60006141f6601e836134c7565b9150614201826141c0565b602082019050919050565b60006020820190508181036000830152614225816141e9565b9050919050565b7f57686974656c6973742053616c6520686173206e6f742061637469766174656460008201527f2079657400000000000000000000000000000000000000000000000000000000602082015250565b60006142886024836134c7565b91506142938261422c565b604082019050919050565b600060208201905081810360008301526142b78161427b565b9050919050565b7f4e6f742077686974656c69737465640000000000000000000000000000000000600082015250565b60006142f4600f836134c7565b91506142ff826142be565b602082019050919050565b60006020820190508181036000830152614323816142e7565b9050919050565b7f596f752063616e206f6e6c79206765742031204e4654206f6e2074686520576860008201527f6974656c6973742053616c650000000000000000000000000000000000000000602082015250565b6000614386602c836134c7565b91506143918261432a565b604082019050919050565b600060208201905081810360008301526143b581614379565b9050919050565b7f4d617820737570706c7920657863656564656400000000000000000000000000600082015250565b60006143f26013836134c7565b91506143fd826143bc565b602082019050919050565b60006020820190508181036000830152614421816143e5565b9050919050565b6000614433826136bd565b915061443e836136bd565b9250817fffffffffffffffffffffffffffffffffffffffffffffffffffffffffffffffff048311821515161561447757614476613f4a565b5b828202905092915050565b7f4e6f7420656e6f756768742066756e6473000000000000000000000000000000600082015250565b60006144b86011836134c7565b91506144c382614482565b602082019050919050565b600060208201905081810360008301526144e7816144ab565b9050919050565b60006144f9826136bd565b91507fffffffffffffffffffffffffffffffffffffffffffffffffffffffffffffffff82141561452c5761452b613f4a565b5b600182019050919050565b7f4e487b7100000000000000000000000000000000000000000000000000000000600052603260045260246000fd5b7f5072696365206973203000000000000000000000000000000000000000000000600082015250565b600061459c600a836134c7565b91506145a782614566565b602082019050919050565b600060208201905081810360008301526145cb8161458f565b9050919050565b7f5075626c69632073616c65206973206e6f742061637469766174656400000000600082015250565b6000614608601c836134c7565b9150614613826145d2565b602082019050919050565b60006020820190508181036000830152614637816145fb565b9050919050565b7f596f752063616e206f6e6c7920676574203130204e4654206f6e20746865205060008201527f75626c69632053616c6500000000000000000000000000000000000000000000602082015250565b600061469a602a836134c7565b91506146a58261463e565b604082019050919050565b600060208201905081810360008301526146c98161468d565b9050919050565b7f55524920717565727920666f72206e6f6e6578697374656e7420746f6b656e00600082015250565b6000614706601f836134c7565b9150614711826146d0565b602082019050919050565b60006020820190508181036000830152614735816146f9565b9050919050565b600081905092915050565b60008190508160005260206000209050919050565b6000815461476981613e86565b614773818661473c565b9450600182166000811461478e576001811461479f576147d2565b60ff198316865281860193506147d2565b6147a885614747565b60005b838110156147ca578154818901526001820191506020810190506147ab565b838801955050505b50505092915050565b60006147e682613613565b6147f0818561473c565b935061480081856020860161361e565b80840191505092915050565b7f2e6a736f6e000000000000000000000000000000000000000000000000000000600082015250565b600061484260058361473c565b915061484d8261480c565b600582019050919050565b6000614864828561475c565b915061487082846147db565b915061487b82614835565b91508190509392505050565b7f52656163686564206d617820537570706c790000000000000000000000000000600082015250565b60006148bd6012836134c7565b91506148c882614887565b602082019050919050565b600060208201905081810360008301526148ec816148b0565b9050919050565b7f4f776e61626c653a206e6577206f776e657220697320746865207a65726f206160008201527f6464726573730000000000000000000000000000000000000000000000000000602082015250565b600061494f6026836134c7565b915061495a826148f3565b604082019050919050565b6000602082019050818103600083015261497e81614942565b9050919050565b7f4e487b7100000000000000000000000000000000000000000000000000000000600052601260045260246000fd5b60006149bf826136bd565b91506149ca836136bd565b9250826149da576149d9614985565b5b828204905092915050565b60006149f0826136bd565b91506149fb836136bd565b925082821015614a0e57614a0d613f4a565b5b828203905092915050565b7f416464726573733a20696e73756666696369656e742062616c616e6365000000600082015250565b6000614a4f601d836134c7565b9150614a5a82614a19565b602082019050919050565b60006020820190508181036000830152614a7e81614a42565b9050919050565b600081905092915050565b50565b6000614aa0600083614a85565b9150614aab82614a90565b600082019050919050565b6000614ac182614a93565b9150819050919050565b7f416464726573733a20756e61626c6520746f2073656e642076616c75652c207260008201527f6563697069656e74206d61792068617665207265766572746564000000000000602082015250565b6000614b27603a836134c7565b9150614b3282614acb565b604082019050919050565b60006020820190508181036000830152614b5681614b1a565b9050919050565b600081519050919050565b600082825260208201905092915050565b6000614b8482614b5d565b614b8e8185614b68565b9350614b9e81856020860161361e565b614ba781613651565b840191505092915050565b6000608082019050614bc76000830187613752565b614bd46020830186613752565b614be160408301856137e8565b8181036060830152614bf38184614b79565b905095945050505050565b600081519050614c0d81613584565b92915050565b600060208284031215614c2957614c2861354e565b5b6000614c3784828501614bfe565b91505092915050565b6000614c4b826136bd565b9150614c56836136bd565b925082614c6657614c65614985565b5b828206905092915050565b600081519050614c8081613c5a565b92915050565b600060208284031215614c9c57614c9b61354e565b5b6000614caa84828501614c71565b91505092915050565b7f5361666545524332303a204552433230206f7065726174696f6e20646964206e60008201527f6f74207375636365656400000000000000000000000000000000000000000000602082015250565b6000614d0f602a836134c7565b9150614d1a82614cb3565b604082019050919050565b60006020820190508181036000830152614d3e81614d02565b9050919050565b60008160601b9050919050565b6000614d5d82614d45565b9050919050565b6000614d6f82614d52565b9050919050565b614d87614d8282613740565b614d64565b82525050565b6000614d998284614d76565b60148201915081905092915050565b7f416464726573733a20696e73756666696369656e742062616c616e636520666f60008201527f722063616c6c0000000000000000000000000000000000000000000000000000602082015250565b6000614e046026836134c7565b9150614e0f82614da8565b604082019050919050565b60006020820190508181036000830152614e3381614df7565b9050919050565b7f416464726573733a2063616c6c20746f206e6f6e2d636f6e7472616374000000600082015250565b6000614e70601d836134c7565b9150614e7b82614e3a565b602082019050919050565b60006020820190508181036000830152614e9f81614e63565b9050919050565b6000614eb182614b5d565b614ebb8185614a85565b9350614ecb81856020860161361e565b80840191505092915050565b6000614ee38284614ea6565b91508190509291505056fea26469706673582212203eb5f9fda57f71fb3ae9e440f45e16106497f5a42a3c8e5bfe7c3f155872e54264736f6c634300080c0033",
  "linkReferences": {},
  "deployedLinkReferences": {}
}