{
  "_format": "hh-sol-artifact-1",
  "contractName": "Moonknight",
  "sourceName": "contracts/Moonknight.sol",
  "abi": [
    {
      "inputs": [
        {
          "internalType": "address[]",
          "name": "_team",
          "type": "address[]"
        },
        {
          "internalType": "uint256[]",
          "name": "_teamShares",
          "type": "uint256[]"
        },
        {
          "internalType": "bytes32",
          "name": "_merkleRoot",
          "type": "bytes32"
        },
        {
          "internalType": "string",
          "name": "_baseURI",
          "type": "string"
        },
        {
          "internalType": "string",
          "name": "initNotRevealedUri",
          "type": "string"
        }
      ],
      "stateMutability": "nonpayable",
      "type": "constructor"
    },
    {
      "inputs": [],
      "name": "ApprovalCallerNotOwnerNorApproved",
      "type": "error"
    },
    {
      "inputs": [],
      "name": "ApprovalQueryForNonexistentToken",
      "type": "error"
    },
    {
      "inputs": [],
      "name": "ApproveToCaller",
      "type": "error"
    },
    {
      "inputs": [],
      "name": "BalanceQueryForZeroAddress",
      "type": "error"
    },
    {
      "inputs": [],
      "name": "MintERC2309QuantityExceedsLimit",
      "type": "error"
    },
    {
      "inputs": [],
      "name": "MintToZeroAddress",
      "type": "error"
    },
    {
      "inputs": [],
      "name": "MintZeroQuantity",
      "type": "error"
    },
    {
      "inputs": [],
      "name": "OwnerQueryForNonexistentToken",
      "type": "error"
    },
    {
      "inputs": [],
      "name": "OwnershipNotInitializedForExtraData",
      "type": "error"
    },
    {
      "inputs": [],
      "name": "TransferCallerNotOwnerNorApproved",
      "type": "error"
    },
    {
      "inputs": [],
      "name": "TransferFromIncorrectOwner",
      "type": "error"
    },
    {
      "inputs": [],
      "name": "TransferToNonERC721ReceiverImplementer",
      "type": "error"
    },
    {
      "inputs": [],
      "name": "TransferToZeroAddress",
      "type": "error"
    },
    {
      "inputs": [],
      "name": "URIQueryForNonexistentToken",
      "type": "error"
    },
    {
      "anonymous": false,
      "inputs": [
        {
          "indexed": true,
          "internalType": "address",
          "name": "owner",
          "type": "address"
        },
        {
          "indexed": true,
          "internalType": "address",
          "name": "approved",
          "type": "address"
        },
        {
          "indexed": true,
          "internalType": "uint256",
          "name": "tokenId",
          "type": "uint256"
        }
      ],
      "name": "Approval",
      "type": "event"
    },
    {
      "anonymous": false,
      "inputs": [
        {
          "indexed": true,
          "internalType": "address",
          "name": "owner",
          "type": "address"
        },
        {
          "indexed": true,
          "internalType": "address",
          "name": "operator",
          "type": "address"
        },
        {
          "indexed": false,
          "internalType": "bool",
          "name": "approved",
          "type": "bool"
        }
      ],
      "name": "ApprovalForAll",
      "type": "event"
    },
    {
      "anonymous": false,
      "inputs": [
        {
          "indexed": true,
          "internalType": "uint256",
          "name": "fromTokenId",
          "type": "uint256"
        },
        {
          "indexed": false,
          "internalType": "uint256",
          "name": "toTokenId",
          "type": "uint256"
        },
        {
          "indexed": true,
          "internalType": "address",
          "name": "from",
          "type": "address"
        },
        {
          "indexed": true,
          "internalType": "address",
          "name": "to",
          "type": "address"
        }
      ],
      "name": "ConsecutiveTransfer",
      "type": "event"
    },
    {
      "anonymous": false,
      "inputs": [
        {
          "indexed": true,
          "internalType": "contract IERC20",
          "name": "token",
          "type": "address"
        },
        {
          "indexed": false,
          "internalType": "address",
          "name": "to",
          "type": "address"
        },
        {
          "indexed": false,
          "internalType": "uint256",
          "name": "amount",
          "type": "uint256"
        }
      ],
      "name": "ERC20PaymentReleased",
      "type": "event"
    },
    {
      "anonymous": false,
      "inputs": [
        {
          "indexed": true,
          "internalType": "address",
          "name": "previousOwner",
          "type": "address"
        },
        {
          "indexed": true,
          "internalType": "address",
          "name": "newOwner",
          "type": "address"
        }
      ],
      "name": "OwnershipTransferred",
      "type": "event"
    },
    {
      "anonymous": false,
      "inputs": [
        {
          "indexed": false,
          "internalType": "address",
          "name": "account",
          "type": "address"
        },
        {
          "indexed": false,
          "internalType": "uint256",
          "name": "shares",
          "type": "uint256"
        }
      ],
      "name": "PayeeAdded",
      "type": "event"
    },
    {
      "anonymous": false,
      "inputs": [
        {
          "indexed": false,
          "internalType": "address",
          "name": "from",
          "type": "address"
        },
        {
          "indexed": false,
          "internalType": "uint256",
          "name": "amount",
          "type": "uint256"
        }
      ],
      "name": "PaymentReceived",
      "type": "event"
    },
    {
      "anonymous": false,
      "inputs": [
        {
          "indexed": false,
          "internalType": "address",
          "name": "to",
          "type": "address"
        },
        {
          "indexed": false,
          "internalType": "uint256",
          "name": "amount",
          "type": "uint256"
        }
      ],
      "name": "PaymentReleased",
      "type": "event"
    },
    {
      "anonymous": false,
      "inputs": [
        {
          "indexed": true,
          "internalType": "address",
          "name": "from",
          "type": "address"
        },
        {
          "indexed": true,
          "internalType": "address",
          "name": "to",
          "type": "address"
        },
        {
          "indexed": true,
          "internalType": "uint256",
          "name": "tokenId",
          "type": "uint256"
        }
      ],
      "name": "Transfer",
      "type": "event"
    },
    {
      "inputs": [
        {
          "internalType": "address",
          "name": "",
          "type": "address"
        }
      ],
      "name": "Amount_NFT_PerWallet_MLSALE",
      "outputs": [
        {
          "internalType": "uint256",
          "name": "",
          "type": "uint256"
        }
      ],
      "stateMutability": "view",
      "type": "function"
    },
    {
      "inputs": [
        {
          "internalType": "address",
          "name": "",
          "type": "address"
        }
      ],
      "name": "Amount_NFT_PerWallet_PUBSALE",
      "outputs": [
        {
          "internalType": "uint256",
          "name": "",
          "type": "uint256"
        }
      ],
      "stateMutability": "view",
      "type": "function"
    },
    {
      "inputs": [],
      "name": "_revealed",
      "outputs": [
        {
          "internalType": "bool",
          "name": "",
          "type": "bool"
        }
      ],
      "stateMutability": "view",
      "type": "function"
    },
    {
      "inputs": [
        {
          "internalType": "address",
          "name": "to",
          "type": "address"
        },
        {
          "internalType": "uint256",
          "name": "tokenId",
          "type": "uint256"
        }
      ],
      "name": "approve",
      "outputs": [],
      "stateMutability": "nonpayable",
      "type": "function"
    },
    {
      "inputs": [
        {
          "internalType": "address",
          "name": "owner",
          "type": "address"
        }
      ],
      "name": "balanceOf",
      "outputs": [
        {
          "internalType": "uint256",
          "name": "",
          "type": "uint256"
        }
      ],
      "stateMutability": "view",
      "type": "function"
    },
    {
      "inputs": [],
      "name": "baseExtension",
      "outputs": [
        {
          "internalType": "string",
          "name": "",
          "type": "string"
        }
      ],
      "stateMutability": "view",
      "type": "function"
    },
    {
      "inputs": [],
      "name": "baseURI",
      "outputs": [
        {
          "internalType": "string",
          "name": "",
          "type": "string"
        }
      ],
      "stateMutability": "view",
      "type": "function"
    },
    {
      "inputs": [],
      "name": "flipReveal",
      "outputs": [],
      "stateMutability": "nonpayable",
      "type": "function"
    },
    {
      "inputs": [],
      "name": "flipSaleState",
      "outputs": [],
      "stateMutability": "nonpayable",
      "type": "function"
    },
    {
      "inputs": [],
      "name": "flipmlsaleState",
      "outputs": [],
      "stateMutability": "nonpayable",
      "type": "function"
    },
    {
      "inputs": [
        {
          "internalType": "uint256",
          "name": "tokenId",
          "type": "uint256"
        }
      ],
      "name": "getApproved",
      "outputs": [
        {
          "internalType": "address",
          "name": "",
          "type": "address"
        }
      ],
      "stateMutability": "view",
      "type": "function"
    },
    {
      "inputs": [
        {
          "internalType": "address",
          "name": "_to",
          "type": "address"
        },
        {
          "internalType": "uint256",
          "name": "_quantity",
          "type": "uint256"
        }
      ],
      "name": "gift",
      "outputs": [],
      "stateMutability": "nonpayable",
      "type": "function"
    },
    {
      "inputs": [
        {
          "internalType": "address",
          "name": "owner",
          "type": "address"
        },
        {
          "internalType": "address",
          "name": "operator",
          "type": "address"
        }
      ],
      "name": "isApprovedForAll",
      "outputs": [
        {
          "internalType": "bool",
          "name": "",
          "type": "bool"
        }
      ],
      "stateMutability": "view",
      "type": "function"
    },
    {
      "inputs": [
        {
          "internalType": "address",
          "name": "_account",
          "type": "address"
        },
        {
          "internalType": "bytes32[]",
          "name": "_proof",
          "type": "bytes32[]"
        }
      ],
      "name": "isWhiteListed",
      "outputs": [
        {
          "internalType": "bool",
          "name": "",
          "type": "bool"
        }
      ],
      "stateMutability": "view",
      "type": "function"
    },
    {
      "inputs": [],
      "name": "merkleRoot",
      "outputs": [
        {
          "internalType": "bytes32",
          "name": "",
          "type": "bytes32"
        }
      ],
      "stateMutability": "view",
      "type": "function"
    },
    {
      "inputs": [],
      "name": "mlSalePrice",
      "outputs": [
        {
          "internalType": "uint256",
          "name": "",
          "type": "uint256"
        }
      ],
      "stateMutability": "view",
      "type": "function"
    },
    {
      "inputs": [],
      "name": "mlsaleIsActive",
      "outputs": [
        {
          "internalType": "bool",
          "name": "",
          "type": "bool"
        }
      ],
      "stateMutability": "view",
      "type": "function"
    },
    {
      "inputs": [],
      "name": "mlsaleMaxMint",
      "outputs": [
        {
          "internalType": "uint256",
          "name": "",
          "type": "uint256"
        }
      ],
      "stateMutability": "view",
      "type": "function"
    },
    {
      "inputs": [],
      "name": "name",
      "outputs": [
        {
          "internalType": "string",
          "name": "",
          "type": "string"
        }
      ],
      "stateMutability": "view",
      "type": "function"
    },
    {
      "inputs": [],
      "name": "notRevealedUri",
      "outputs": [
        {
          "internalType": "string",
          "name": "",
          "type": "string"
        }
      ],
      "stateMutability": "view",
      "type": "function"
    },
    {
      "inputs": [],
      "name": "owner",
      "outputs": [
        {
          "internalType": "address",
          "name": "",
          "type": "address"
        }
      ],
      "stateMutability": "view",
      "type": "function"
    },
    {
      "inputs": [
        {
          "internalType": "uint256",
          "name": "tokenId",
          "type": "uint256"
        }
      ],
      "name": "ownerOf",
      "outputs": [
        {
          "internalType": "address",
          "name": "",
          "type": "address"
        }
      ],
      "stateMutability": "view",
      "type": "function"
    },
    {
      "inputs": [
        {
          "internalType": "uint256",
          "name": "index",
          "type": "uint256"
        }
      ],
      "name": "payee",
      "outputs": [
        {
          "internalType": "address",
          "name": "",
          "type": "address"
        }
      ],
      "stateMutability": "view",
      "type": "function"
    },
    {
      "inputs": [
        {
          "internalType": "address",
          "name": "_account",
          "type": "address"
        },
        {
          "internalType": "uint256",
          "name": "_quantity",
          "type": "uint256"
        }
      ],
      "name": "publicSaleMint",
      "outputs": [],
      "stateMutability": "payable",
      "type": "function"
    },
    {
      "inputs": [],
      "name": "publicSalePrice",
      "outputs": [
        {
          "internalType": "uint256",
          "name": "",
          "type": "uint256"
        }
      ],
      "stateMutability": "view",
      "type": "function"
    },
    {
      "inputs": [],
      "name": "publicsaleMaxMint",
      "outputs": [
        {
          "internalType": "uint256",
          "name": "",
          "type": "uint256"
        }
      ],
      "stateMutability": "view",
      "type": "function"
    },
    {
      "inputs": [
        {
          "internalType": "address payable",
          "name": "account",
          "type": "address"
        }
      ],
      "name": "release",
      "outputs": [],
      "stateMutability": "nonpayable",
      "type": "function"
    },
    {
      "inputs": [
        {
          "internalType": "contract IERC20",
          "name": "token",
          "type": "address"
        },
        {
          "internalType": "address",
          "name": "account",
          "type": "address"
        }
      ],
      "name": "release",
      "outputs": [],
      "stateMutability": "nonpayable",
      "type": "function"
    },
    {
      "inputs": [],
      "name": "releaseAll",
      "outputs": [],
      "stateMutability": "nonpayable",
      "type": "function"
    },
    {
      "inputs": [
        {
          "internalType": "contract IERC20",
          "name": "token",
          "type": "address"
        },
        {
          "internalType": "address",
          "name": "account",
          "type": "address"
        }
      ],
      "name": "released",
      "outputs": [
        {
          "internalType": "uint256",
          "name": "",
          "type": "uint256"
        }
      ],
      "stateMutability": "view",
      "type": "function"
    },
    {
      "inputs": [
        {
          "internalType": "address",
          "name": "account",
          "type": "address"
        }
      ],
      "name": "released",
      "outputs": [
        {
          "internalType": "uint256",
          "name": "",
          "type": "uint256"
        }
      ],
      "stateMutability": "view",
      "type": "function"
    },
    {
      "inputs": [],
      "name": "renounceOwnership",
      "outputs": [],
      "stateMutability": "nonpayable",
      "type": "function"
    },
    {
      "inputs": [
        {
          "internalType": "address",
          "name": "from",
          "type": "address"
        },
        {
          "internalType": "address",
          "name": "to",
          "type": "address"
        },
        {
          "internalType": "uint256",
          "name": "tokenId",
          "type": "uint256"
        }
      ],
      "name": "safeTransferFrom",
      "outputs": [],
      "stateMutability": "nonpayable",
      "type": "function"
    },
    {
      "inputs": [
        {
          "internalType": "address",
          "name": "from",
          "type": "address"
        },
        {
          "internalType": "address",
          "name": "to",
          "type": "address"
        },
        {
          "internalType": "uint256",
          "name": "tokenId",
          "type": "uint256"
        },
        {
          "internalType": "bytes",
          "name": "_data",
          "type": "bytes"
        }
      ],
      "name": "safeTransferFrom",
      "outputs": [],
      "stateMutability": "nonpayable",
      "type": "function"
    },
    {
      "inputs": [],
      "name": "saleIsActive",
      "outputs": [
        {
          "internalType": "bool",
          "name": "",
          "type": "bool"
        }
      ],
      "stateMutability": "view",
      "type": "function"
    },
    {
      "inputs": [
        {
          "internalType": "address",
          "name": "operator",
          "type": "address"
        },
        {
          "internalType": "bool",
          "name": "approved",
          "type": "bool"
        }
      ],
      "name": "setApprovalForAll",
      "outputs": [],
      "stateMutability": "nonpayable",
      "type": "function"
    },
    {
      "inputs": [
        {
          "internalType": "string",
          "name": "_baseURI",
          "type": "string"
        }
      ],
      "name": "setBaseUri",
      "outputs": [],
      "stateMutability": "nonpayable",
      "type": "function"
    },
    {
      "inputs": [
        {
          "internalType": "bytes32",
          "name": "_merkleRoot",
          "type": "bytes32"
        }
      ],
      "name": "setMerkleRoot",
      "outputs": [],
      "stateMutability": "nonpayable",
      "type": "function"
    },
    {
      "inputs": [
        {
          "internalType": "string",
          "name": "_notRevealedURI",
          "type": "string"
        }
      ],
      "name": "setNotRevealedURI",
      "outputs": [],
      "stateMutability": "nonpayable",
      "type": "function"
    },
    {
      "inputs": [
        {
          "internalType": "address",
          "name": "account",
          "type": "address"
        }
      ],
      "name": "shares",
      "outputs": [
        {
          "internalType": "uint256",
          "name": "",
          "type": "uint256"
        }
      ],
      "stateMutability": "view",
      "type": "function"
    },
    {
      "inputs": [
        {
          "internalType": "bytes4",
          "name": "interfaceId",
          "type": "bytes4"
        }
      ],
      "name": "supportsInterface",
      "outputs": [
        {
          "internalType": "bool",
          "name": "",
          "type": "bool"
        }
      ],
      "stateMutability": "view",
      "type": "function"
    },
    {
      "inputs": [],
      "name": "symbol",
      "outputs": [
        {
          "internalType": "string",
          "name": "",
          "type": "string"
        }
      ],
      "stateMutability": "view",
      "type": "function"
    },
    {
      "inputs": [
        {
          "internalType": "uint256",
          "name": "tokenId",
          "type": "uint256"
        }
      ],
      "name": "tokenURI",
      "outputs": [
        {
          "internalType": "string",
          "name": "",
          "type": "string"
        }
      ],
      "stateMutability": "view",
      "type": "function"
    },
    {
      "inputs": [
        {
          "internalType": "contract IERC20",
          "name": "token",
          "type": "address"
        }
      ],
      "name": "totalReleased",
      "outputs": [
        {
          "internalType": "uint256",
          "name": "",
          "type": "uint256"
        }
      ],
      "stateMutability": "view",
      "type": "function"
    },
    {
      "inputs": [],
      "name": "totalReleased",
      "outputs": [
        {
          "internalType": "uint256",
          "name": "",
          "type": "uint256"
        }
      ],
      "stateMutability": "view",
      "type": "function"
    },
    {
      "inputs": [],
      "name": "totalShares",
      "outputs": [
        {
          "internalType": "uint256",
          "name": "",
          "type": "uint256"
        }
      ],
      "stateMutability": "view",
      "type": "function"
    },
    {
      "inputs": [],
      "name": "totalSupply",
      "outputs": [
        {
          "internalType": "uint256",
          "name": "",
          "type": "uint256"
        }
      ],
      "stateMutability": "view",
      "type": "function"
    },
    {
      "inputs": [
        {
          "internalType": "address",
          "name": "from",
          "type": "address"
        },
        {
          "internalType": "address",
          "name": "to",
          "type": "address"
        },
        {
          "internalType": "uint256",
          "name": "tokenId",
          "type": "uint256"
        }
      ],
      "name": "transferFrom",
      "outputs": [],
      "stateMutability": "nonpayable",
      "type": "function"
    },
    {
      "inputs": [
        {
          "internalType": "address",
          "name": "newOwner",
          "type": "address"
        }
      ],
      "name": "transferOwnership",
      "outputs": [],
      "stateMutability": "nonpayable",
      "type": "function"
    },
    {
      "inputs": [
        {
          "internalType": "address",
          "name": "_account",
          "type": "address"
        },
        {
          "internalType": "uint256",
          "name": "_quantity",
          "type": "uint256"
        },
        {
          "internalType": "bytes32[]",
          "name": "_proof",
          "type": "bytes32[]"
        }
      ],
      "name": "whitelistMint",
      "outputs": [],
      "stateMutability": "payable",
      "type": "function"
    },
    {
      "stateMutability": "payable",
      "type": "receive"
    }
  ],
  "bytecode": "0x6080604052600360105560026011556000601260006101000a81548160ff0219169083151502179055506000601260016101000a81548160ff0219169083151502179055506000601260026101000a81548160ff02191690831515021790555060006013556040518060400160405280600581526020017f2e6a736f6e00000000000000000000000000000000000000000000000000000081525060159081620000aa919062000941565b50661772aa3f848000601755348015620000c357600080fd5b5060405162006995380380620069958339818101604052810190620000e9919062000e0e565b84846040518060400160405280600a81526020017f4d6f6f6e6b6e69676874000000000000000000000000000000000000000000008152506040518060400160405280600281526020017f4d4b000000000000000000000000000000000000000000000000000000000000815250620001776200016b620002f060201b60201c565b620002f860201b60201c565b816003908162000188919062000941565b5080600490816200019a919062000941565b50620001ab620003bc60201b60201c565b60018190555050508051825114620001fa576040517f08c379a0000000000000000000000000000000000000000000000000000000008152600401620001f19062000f99565b60405180910390fd5b600082511162000241576040517f08c379a000000000000000000000000000000000000000000000000000000000815260040162000238906200100b565b60405180910390fd5b60005b8251811015620002b0576200029a8382815181106200026857620002676200102d565b5b60200260200101518383815181106200028657620002856200102d565b5b6020026020010151620003c160201b60201c565b8080620002a7906200108b565b91505062000244565b505050826018819055508160169081620002cb919062000941565b508451601c81905550620002e581620005fa60201b60201c565b505050505062001376565b600033905090565b60008060009054906101000a900473ffffffffffffffffffffffffffffffffffffffff169050816000806101000a81548173ffffffffffffffffffffffffffffffffffffffff021916908373ffffffffffffffffffffffffffffffffffffffff1602179055508173ffffffffffffffffffffffffffffffffffffffff168173ffffffffffffffffffffffffffffffffffffffff167f8be0079c531659141344cd1fd0a4f28419497f9722a3daafe3b4186f6b6457e060405160405180910390a35050565b600090565b600073ffffffffffffffffffffffffffffffffffffffff168273ffffffffffffffffffffffffffffffffffffffff160362000433576040517f08c379a00000000000000000000000000000000000000000000000000000000081526004016200042a906200114e565b60405180910390fd5b6000811162000479576040517f08c379a00000000000000000000000000000000000000000000000000000000081526004016200047090620011c0565b60405180910390fd5b6000600b60008473ffffffffffffffffffffffffffffffffffffffff1673ffffffffffffffffffffffffffffffffffffffff1681526020019081526020016000205414620004fe576040517f08c379a0000000000000000000000000000000000000000000000000000000008152600401620004f59062001258565b60405180910390fd5b600d829080600181540180825580915050600190039060005260206000200160009091909190916101000a81548173ffffffffffffffffffffffffffffffffffffffff021916908373ffffffffffffffffffffffffffffffffffffffff16021790555080600b60008473ffffffffffffffffffffffffffffffffffffffff1673ffffffffffffffffffffffffffffffffffffffff1681526020019081526020016000208190555080600954620005b591906200127a565b6009819055507f40c340f65e17194d14ddddb073d3c9f888e3cb52b5aae0c6c7706b4fbc905fac8282604051620005ee929190620012d7565b60405180910390a15050565b6200060a620002f060201b60201c565b73ffffffffffffffffffffffffffffffffffffffff16620006306200069e60201b60201c565b73ffffffffffffffffffffffffffffffffffffffff161462000689576040517f08c379a0000000000000000000000000000000000000000000000000000000008152600401620006809062001354565b60405180910390fd5b80601490816200069a919062000941565b5050565b60008060009054906101000a900473ffffffffffffffffffffffffffffffffffffffff16905090565b600081519050919050565b7f4e487b7100000000000000000000000000000000000000000000000000000000600052604160045260246000fd5b7f4e487b7100000000000000000000000000000000000000000000000000000000600052602260045260246000fd5b600060028204905060018216806200074957607f821691505b6020821081036200075f576200075e62000701565b5b50919050565b60008190508160005260206000209050919050565b60006020601f8301049050919050565b600082821b905092915050565b600060088302620007c97fffffffffffffffffffffffffffffffffffffffffffffffffffffffffffffffff826200078a565b620007d586836200078a565b95508019841693508086168417925050509392505050565b6000819050919050565b6000819050919050565b6000620008226200081c6200081684620007ed565b620007f7565b620007ed565b9050919050565b6000819050919050565b6200083e8362000801565b620008566200084d8262000829565b84845462000797565b825550505050565b600090565b6200086d6200085e565b6200087a81848462000833565b505050565b5b81811015620008a2576200089660008262000863565b60018101905062000880565b5050565b601f821115620008f157620008bb8162000765565b620008c6846200077a565b81016020851015620008d6578190505b620008ee620008e5856200077a565b8301826200087f565b50505b505050565b600082821c905092915050565b60006200091660001984600802620008f6565b1980831691505092915050565b600062000931838362000903565b9150826002028217905092915050565b6200094c82620006c7565b67ffffffffffffffff811115620009685762000967620006d2565b5b62000974825462000730565b62000981828285620008a6565b600060209050601f831160018114620009b95760008415620009a4578287015190505b620009b0858262000923565b86555062000a20565b601f198416620009c98662000765565b60005b82811015620009f357848901518255600182019150602085019450602081019050620009cc565b8683101562000a13578489015162000a0f601f89168262000903565b8355505b6001600288020188555050505b505050505050565b6000604051905090565b600080fd5b600080fd5b600080fd5b6000601f19601f8301169050919050565b62000a5d8262000a41565b810181811067ffffffffffffffff8211171562000a7f5762000a7e620006d2565b5b80604052505050565b600062000a9462000a28565b905062000aa2828262000a52565b919050565b600067ffffffffffffffff82111562000ac55762000ac4620006d2565b5b602082029050602081019050919050565b600080fd5b600073ffffffffffffffffffffffffffffffffffffffff82169050919050565b600062000b088262000adb565b9050919050565b62000b1a8162000afb565b811462000b2657600080fd5b50565b60008151905062000b3a8162000b0f565b92915050565b600062000b5762000b518462000aa7565b62000a88565b9050808382526020820190506020840283018581111562000b7d5762000b7c62000ad6565b5b835b8181101562000baa578062000b95888262000b29565b84526020840193505060208101905062000b7f565b5050509392505050565b600082601f83011262000bcc5762000bcb62000a3c565b5b815162000bde84826020860162000b40565b91505092915050565b600067ffffffffffffffff82111562000c055762000c04620006d2565b5b602082029050602081019050919050565b62000c2181620007ed565b811462000c2d57600080fd5b50565b60008151905062000c418162000c16565b92915050565b600062000c5e62000c588462000be7565b62000a88565b9050808382526020820190506020840283018581111562000c845762000c8362000ad6565b5b835b8181101562000cb1578062000c9c888262000c30565b84526020840193505060208101905062000c86565b5050509392505050565b600082601f83011262000cd35762000cd262000a3c565b5b815162000ce584826020860162000c47565b91505092915050565b6000819050919050565b62000d038162000cee565b811462000d0f57600080fd5b50565b60008151905062000d238162000cf8565b92915050565b600080fd5b600067ffffffffffffffff82111562000d4c5762000d4b620006d2565b5b62000d578262000a41565b9050602081019050919050565b60005b8381101562000d8457808201518184015260208101905062000d67565b60008484015250505050565b600062000da762000da18462000d2e565b62000a88565b90508281526020810184848401111562000dc65762000dc562000d29565b5b62000dd384828562000d64565b509392505050565b600082601f83011262000df35762000df262000a3c565b5b815162000e0584826020860162000d90565b91505092915050565b600080600080600060a0868803121562000e2d5762000e2c62000a32565b5b600086015167ffffffffffffffff81111562000e4e5762000e4d62000a37565b5b62000e5c8882890162000bb4565b955050602086015167ffffffffffffffff81111562000e805762000e7f62000a37565b5b62000e8e8882890162000cbb565b945050604062000ea18882890162000d12565b935050606086015167ffffffffffffffff81111562000ec55762000ec462000a37565b5b62000ed38882890162000ddb565b925050608086015167ffffffffffffffff81111562000ef75762000ef662000a37565b5b62000f058882890162000ddb565b9150509295509295909350565b600082825260208201905092915050565b7f5061796d656e7453706c69747465723a2070617965657320616e64207368617260008201527f6573206c656e677468206d69736d617463680000000000000000000000000000602082015250565b600062000f8160328362000f12565b915062000f8e8262000f23565b604082019050919050565b6000602082019050818103600083015262000fb48162000f72565b9050919050565b7f5061796d656e7453706c69747465723a206e6f20706179656573000000000000600082015250565b600062000ff3601a8362000f12565b9150620010008262000fbb565b602082019050919050565b60006020820190508181036000830152620010268162000fe4565b9050919050565b7f4e487b7100000000000000000000000000000000000000000000000000000000600052603260045260246000fd5b7f4e487b7100000000000000000000000000000000000000000000000000000000600052601160045260246000fd5b60006200109882620007ed565b91507fffffffffffffffffffffffffffffffffffffffffffffffffffffffffffffffff8203620010cd57620010cc6200105c565b5b600182019050919050565b7f5061796d656e7453706c69747465723a206163636f756e74206973207468652060008201527f7a65726f20616464726573730000000000000000000000000000000000000000602082015250565b600062001136602c8362000f12565b91506200114382620010d8565b604082019050919050565b60006020820190508181036000830152620011698162001127565b9050919050565b7f5061796d656e7453706c69747465723a20736861726573206172652030000000600082015250565b6000620011a8601d8362000f12565b9150620011b58262001170565b602082019050919050565b60006020820190508181036000830152620011db8162001199565b9050919050565b7f5061796d656e7453706c69747465723a206163636f756e7420616c726561647960008201527f2068617320736861726573000000000000000000000000000000000000000000602082015250565b600062001240602b8362000f12565b91506200124d82620011e2565b604082019050919050565b60006020820190508181036000830152620012738162001231565b9050919050565b60006200128782620007ed565b91506200129483620007ed565b9250828201905080821115620012af57620012ae6200105c565b5b92915050565b620012c08162000afb565b82525050565b620012d181620007ed565b82525050565b6000604082019050620012ee6000830185620012b5565b620012fd6020830184620012c6565b9392505050565b7f4f776e61626c653a2063616c6c6572206973206e6f7420746865206f776e6572600082015250565b60006200133c60208362000f12565b9150620013498262001304565b602082019050919050565b600060208201905081810360008301526200136f816200132d565b9050919050565b61560f80620013866000396000f3fe6080604052600436106102cd5760003560e01c80638b83209b11610175578063c87b56dd116100dc578063e33b7de311610095578063eb8d24441161006f578063eb8d244414610b20578063f2c4ce1e14610b4b578063f2fde38b14610b74578063f47ee42114610b9d5761030d565b8063e33b7de314610a8d578063e985e9c514610ab8578063e9f514f214610af55761030d565b8063c87b56dd14610945578063cbce4c9714610982578063ce7c2ac2146109ab578063d79779b2146109e8578063d86697ee14610a25578063d979fa9c14610a625761030d565b8063a22cb4651161012e578063a22cb4651461086a578063ac5ae11b14610893578063b88d4fde146108af578063bec88e28146108d8578063c5027fa514610903578063c66828621461091a5761030d565b80638b83209b146107465780638da5cb5b1461078357806395d89b41146107ae5780639852595c146107d95780639b6860c814610816578063a0bcfc7f146108415761030d565b80633b84d9c61161023457806361bdac32116101ed5780636ebeac85116101c75780636ebeac851461069e57806370a08231146106c9578063715018a6146107065780637cb647591461071d5761030d565b806361bdac32146105f95780636352211e146106365780636c0360eb146106735761030d565b80633b84d9c614610520578063406072a91461053757806342842e0e1461057457806348b750441461059d5780634b11faaf146105c65780635be7fde8146105e25761030d565b80631916558711610286578063191655871461043657806323b872dd1461045f5780632eb4a7ab1461048857806333fdc427146104b357806334918dfd146104de5780633a98ef39146104f55761030d565b806301ffc9a71461031257806306fdde031461034f578063081812fc1461037a578063081c8c44146103b7578063095ea7b3146103e257806318160ddd1461040b5761030d565b3661030d576040517f08c379a0000000000000000000000000000000000000000000000000000000008152600401610304906139e5565b60405180910390fd5b600080fd5b34801561031e57600080fd5b5061033960048036038101906103349190613a71565b610bda565b6040516103469190613ab9565b60405180910390f35b34801561035b57600080fd5b50610364610c6c565b6040516103719190613b53565b60405180910390f35b34801561038657600080fd5b506103a1600480360381019061039c9190613bab565b610cfe565b6040516103ae9190613c19565b60405180910390f35b3480156103c357600080fd5b506103cc610d7d565b6040516103d99190613b53565b60405180910390f35b3480156103ee57600080fd5b5061040960048036038101906104049190613c60565b610e0b565b005b34801561041757600080fd5b50610420610f4f565b60405161042d9190613caf565b60405180910390f35b34801561044257600080fd5b5061045d60048036038101906104589190613d08565b610f66565b005b34801561046b57600080fd5b5061048660048036038101906104819190613d35565b611110565b005b34801561049457600080fd5b5061049d611432565b6040516104aa9190613da1565b60405180910390f35b3480156104bf57600080fd5b506104c8611438565b6040516104d59190613caf565b60405180910390f35b3480156104ea57600080fd5b506104f361143e565b005b34801561050157600080fd5b5061050a6114e6565b6040516105179190613caf565b60405180910390f35b34801561052c57600080fd5b506105356114f0565b005b34801561054357600080fd5b5061055e60048036038101906105599190613dfa565b611598565b60405161056b9190613caf565b60405180910390f35b34801561058057600080fd5b5061059b60048036038101906105969190613d35565b61161f565b005b3480156105a957600080fd5b506105c460048036038101906105bf9190613dfa565b61163f565b005b6105e060048036038101906105db9190613e9f565b6118f7565b005b3480156105ee57600080fd5b506105f7611b32565b005b34801561060557600080fd5b50610620600480360381019061061b9190613f13565b611b66565b60405161062d9190613caf565b60405180910390f35b34801561064257600080fd5b5061065d60048036038101906106589190613bab565b611b7e565b60405161066a9190613c19565b60405180910390f35b34801561067f57600080fd5b50610688611b90565b6040516106959190613b53565b60405180910390f35b3480156106aa57600080fd5b506106b3611c1e565b6040516106c09190613ab9565b60405180910390f35b3480156106d557600080fd5b506106f060048036038101906106eb9190613f13565b611c31565b6040516106fd9190613caf565b60405180910390f35b34801561071257600080fd5b5061071b611ce9565b005b34801561072957600080fd5b50610744600480360381019061073f9190613f6c565b611d71565b005b34801561075257600080fd5b5061076d60048036038101906107689190613bab565b611df7565b60405161077a9190613c19565b60405180910390f35b34801561078f57600080fd5b50610798611e3f565b6040516107a59190613c19565b60405180910390f35b3480156107ba57600080fd5b506107c3611e68565b6040516107d09190613b53565b60405180910390f35b3480156107e557600080fd5b5061080060048036038101906107fb9190613f13565b611efa565b60405161080d9190613caf565b60405180910390f35b34801561082257600080fd5b5061082b611f43565b6040516108389190613caf565b60405180910390f35b34801561084d57600080fd5b50610868600480360381019061086391906140c9565b611f49565b005b34801561087657600080fd5b50610891600480360381019061088c919061413e565b611fd8565b005b6108ad60048036038101906108a89190613c60565b61214f565b005b3480156108bb57600080fd5b506108d660048036038101906108d1919061421f565b61238e565b005b3480156108e457600080fd5b506108ed612401565b6040516108fa9190613caf565b60405180910390f35b34801561090f57600080fd5b50610918612407565b005b34801561092657600080fd5b5061092f6124af565b60405161093c9190613b53565b60405180910390f35b34801561095157600080fd5b5061096c60048036038101906109679190613bab565b61253d565b6040516109799190613b53565b60405180910390f35b34801561098e57600080fd5b506109a960048036038101906109a49190613c60565b61275f565b005b3480156109b757600080fd5b506109d260048036038101906109cd9190613f13565b612840565b6040516109df9190613caf565b60405180910390f35b3480156109f457600080fd5b50610a0f6004803603810190610a0a91906142a2565b612889565b604051610a1c9190613caf565b60405180910390f35b348015610a3157600080fd5b50610a4c6004803603810190610a4791906142cf565b6128d2565b604051610a599190613ab9565b60405180910390f35b348015610a6e57600080fd5b50610a77612930565b604051610a849190613ab9565b60405180910390f35b348015610a9957600080fd5b50610aa2612943565b604051610aaf9190613caf565b60405180910390f35b348015610ac457600080fd5b50610adf6004803603810190610ada919061432f565b61294d565b604051610aec9190613ab9565b60405180910390f35b348015610b0157600080fd5b50610b0a6129e1565b604051610b179190613caf565b60405180910390f35b348015610b2c57600080fd5b50610b356129e7565b604051610b429190613ab9565b60405180910390f35b348015610b5757600080fd5b50610b726004803603810190610b6d91906140c9565b6129fa565b005b348015610b8057600080fd5b50610b9b6004803603810190610b969190613f13565b612a89565b005b348015610ba957600080fd5b50610bc46004803603810190610bbf9190613f13565b612b80565b604051610bd19190613caf565b60405180910390f35b60006301ffc9a760e01b827bffffffffffffffffffffffffffffffffffffffffffffffffffffffff19161480610c3557506380ac58cd60e01b827bffffffffffffffffffffffffffffffffffffffffffffffffffffffff1916145b80610c655750635b5e139f60e01b827bffffffffffffffffffffffffffffffffffffffffffffffffffffffff1916145b9050919050565b606060038054610c7b9061439e565b80601f0160208091040260200160405190810160405280929190818152602001828054610ca79061439e565b8015610cf45780601f10610cc957610100808354040283529160200191610cf4565b820191906000526020600020905b815481529060010190602001808311610cd757829003601f168201915b5050505050905090565b6000610d0982612b98565b610d3f576040517fcf4700e400000000000000000000000000000000000000000000000000000000815260040160405180910390fd5b6007600083815260200190815260200160002060000160009054906101000a900473ffffffffffffffffffffffffffffffffffffffff169050919050565b60148054610d8a9061439e565b80601f0160208091040260200160405190810160405280929190818152602001828054610db69061439e565b8015610e035780601f10610dd857610100808354040283529160200191610e03565b820191906000526020600020905b815481529060010190602001808311610de657829003601f168201915b505050505081565b6000610e1682611b7e565b90508073ffffffffffffffffffffffffffffffffffffffff16610e37612bf7565b73ffffffffffffffffffffffffffffffffffffffff1614610e9a57610e6381610e5e612bf7565b61294d565b610e99576040517fcfb3b94200000000000000000000000000000000000000000000000000000000815260040160405180910390fd5b5b826007600084815260200190815260200160002060000160006101000a81548173ffffffffffffffffffffffffffffffffffffffff021916908373ffffffffffffffffffffffffffffffffffffffff160217905550818373ffffffffffffffffffffffffffffffffffffffff168273ffffffffffffffffffffffffffffffffffffffff167f8c5be1e5ebec7d5bd14f71427d1e84f3dd0314c0f7b2291e5b200ac8c7c3b92560405160405180910390a4505050565b6000610f59612bff565b6002546001540303905090565b6000600b60008373ffffffffffffffffffffffffffffffffffffffff1673ffffffffffffffffffffffffffffffffffffffff1681526020019081526020016000205411610fe8576040517f08c379a0000000000000000000000000000000000000000000000000000000008152600401610fdf90614441565b60405180910390fd5b6000610ff2612943565b47610ffd9190614490565b90506000611014838361100f86611efa565b612c04565b905060008103611059576040517f08c379a000000000000000000000000000000000000000000000000000000000815260040161105090614536565b60405180910390fd5b80600c60008573ffffffffffffffffffffffffffffffffffffffff1673ffffffffffffffffffffffffffffffffffffffff16815260200190815260200160002060008282546110a89190614490565b9250508190555080600a60008282546110c19190614490565b925050819055506110d28382612c72565b7fdf20fd1e76bc69d672e4814fafb2c449bba3a5369d8359adf9e05e6fde87b05683826040516111039291906145b5565b60405180910390a1505050565b600061111b82612d66565b90508373ffffffffffffffffffffffffffffffffffffffff168173ffffffffffffffffffffffffffffffffffffffff1614611182576040517fa114810000000000000000000000000000000000000000000000000000000000815260040160405180910390fd5b60008061118e84612e32565b915091506111a4818761119f612bf7565b612e59565b6111f0576111b9866111b4612bf7565b61294d565b6111ef576040517f59c896be00000000000000000000000000000000000000000000000000000000815260040160405180910390fd5b5b600073ffffffffffffffffffffffffffffffffffffffff168573ffffffffffffffffffffffffffffffffffffffff1603611256576040517fea553b3400000000000000000000000000000000000000000000000000000000815260040160405180910390fd5b6112638686866001612e9d565b801561126e57600082555b600660008773ffffffffffffffffffffffffffffffffffffffff1673ffffffffffffffffffffffffffffffffffffffff168152602001908152602001600020600081546001900391905081905550600660008673ffffffffffffffffffffffffffffffffffffffff1673ffffffffffffffffffffffffffffffffffffffff168152602001908152602001600020600081546001019190508190555061133c85611318888887612ea3565b7c020000000000000000000000000000000000000000000000000000000017612ecb565b600560008681526020019081526020016000208190555060007c02000000000000000000000000000000000000000000000000000000008416036113c257600060018501905060006005600083815260200190815260200160002054036113c05760015481146113bf578360056000838152602001908152602001600020819055505b5b505b838573ffffffffffffffffffffffffffffffffffffffff168773ffffffffffffffffffffffffffffffffffffffff167fddf252ad1be2c89b69c2b068fc378daa952ba7f163c4a11628f55a4df523b3ef60405160405180910390a461142a8686866001612ef6565b505050505050565b60185481565b60105481565b611446612efc565b73ffffffffffffffffffffffffffffffffffffffff16611464611e3f565b73ffffffffffffffffffffffffffffffffffffffff16146114ba576040517f08c379a00000000000000000000000000000000000000000000000000000000081526004016114b19061462a565b60405180910390fd5b601260009054906101000a900460ff1615601260006101000a81548160ff021916908315150217905550565b6000600954905090565b6114f8612efc565b73ffffffffffffffffffffffffffffffffffffffff16611516611e3f565b73ffffffffffffffffffffffffffffffffffffffff161461156c576040517f08c379a00000000000000000000000000000000000000000000000000000000081526004016115639061462a565b60405180910390fd5b601260029054906101000a900460ff1615601260026101000a81548160ff021916908315150217905550565b6000600f60008473ffffffffffffffffffffffffffffffffffffffff1673ffffffffffffffffffffffffffffffffffffffff16815260200190815260200160002060008373ffffffffffffffffffffffffffffffffffffffff1673ffffffffffffffffffffffffffffffffffffffff16815260200190815260200160002054905092915050565b61163a8383836040518060200160405280600081525061238e565b505050565b6000600b60008373ffffffffffffffffffffffffffffffffffffffff1673ffffffffffffffffffffffffffffffffffffffff16815260200190815260200160002054116116c1576040517f08c379a00000000000000000000000000000000000000000000000000000000081526004016116b890614441565b60405180910390fd5b60006116cc83612889565b8373ffffffffffffffffffffffffffffffffffffffff166370a08231306040518263ffffffff1660e01b81526004016117059190613c19565b602060405180830381865afa158015611722573d6000803e3d6000fd5b505050506040513d601f19601f82011682018060405250810190611746919061465f565b6117509190614490565b9050600061176883836117638787611598565b612c04565b9050600081036117ad576040517f08c379a00000000000000000000000000000000000000000000000000000000081526004016117a490614536565b60405180910390fd5b80600f60008673ffffffffffffffffffffffffffffffffffffffff1673ffffffffffffffffffffffffffffffffffffffff16815260200190815260200160002060008573ffffffffffffffffffffffffffffffffffffffff1673ffffffffffffffffffffffffffffffffffffffff16815260200190815260200160002060008282546118399190614490565b9250508190555080600e60008673ffffffffffffffffffffffffffffffffffffffff1673ffffffffffffffffffffffffffffffffffffffff168152602001908152602001600020600082825461188f9190614490565b925050819055506118a1848483612f04565b8373ffffffffffffffffffffffffffffffffffffffff167f3be5b7a71e84ed12875d241991c70855ac5817d847039e17a9d895c1ceb0f18a84836040516118e992919061468c565b60405180910390a250505050565b60006013549050601260019054906101000a900460ff1661194d576040517f08c379a000000000000000000000000000000000000000000000000000000000815260040161194490614727565b60405180910390fd5b6119583384846128d2565b611997576040517f08c379a000000000000000000000000000000000000000000000000000000000815260040161198e90614793565b60405180910390fd5b60115484601960003373ffffffffffffffffffffffffffffffffffffffff1673ffffffffffffffffffffffffffffffffffffffff168152602001908152602001600020546119e59190614490565b1115611a26576040517f08c379a0000000000000000000000000000000000000000000000000000000008152600401611a1d90614825565b60405180910390fd5b6103e884611a32610f4f565b611a3c9190614490565b1115611a7d576040517f08c379a0000000000000000000000000000000000000000000000000000000008152600401611a7490614891565b60405180910390fd5b8381611a8991906148b1565b341015611acb576040517f08c379a0000000000000000000000000000000000000000000000000000000008152600401611ac290614957565b60405180910390fd5b83601960003373ffffffffffffffffffffffffffffffffffffffff1673ffffffffffffffffffffffffffffffffffffffff1681526020019081526020016000206000828254611b1a9190614490565b92505081905550611b2b8585612f8a565b5050505050565b60005b601c54811015611b6357611b50611b4b82611df7565b610f66565b8080611b5b90614977565b915050611b35565b50565b601a6020528060005260406000206000915090505481565b6000611b8982612d66565b9050919050565b60168054611b9d9061439e565b80601f0160208091040260200160405190810160405280929190818152602001828054611bc99061439e565b8015611c165780601f10611beb57610100808354040283529160200191611c16565b820191906000526020600020905b815481529060010190602001808311611bf957829003601f168201915b505050505081565b601260029054906101000a900460ff1681565b60008073ffffffffffffffffffffffffffffffffffffffff168273ffffffffffffffffffffffffffffffffffffffff1603611c98576040517f8f4eb60400000000000000000000000000000000000000000000000000000000815260040160405180910390fd5b67ffffffffffffffff600660008473ffffffffffffffffffffffffffffffffffffffff1673ffffffffffffffffffffffffffffffffffffffff16815260200190815260200160002054169050919050565b611cf1612efc565b73ffffffffffffffffffffffffffffffffffffffff16611d0f611e3f565b73ffffffffffffffffffffffffffffffffffffffff1614611d65576040517f08c379a0000000000000000000000000000000000000000000000000000000008152600401611d5c9061462a565b60405180910390fd5b611d6f6000612fa8565b565b611d79612efc565b73ffffffffffffffffffffffffffffffffffffffff16611d97611e3f565b73ffffffffffffffffffffffffffffffffffffffff1614611ded576040517f08c379a0000000000000000000000000000000000000000000000000000000008152600401611de49061462a565b60405180910390fd5b8060188190555050565b6000600d8281548110611e0d57611e0c6149bf565b5b9060005260206000200160009054906101000a900473ffffffffffffffffffffffffffffffffffffffff169050919050565b60008060009054906101000a900473ffffffffffffffffffffffffffffffffffffffff16905090565b606060048054611e779061439e565b80601f0160208091040260200160405190810160405280929190818152602001828054611ea39061439e565b8015611ef05780601f10611ec557610100808354040283529160200191611ef0565b820191906000526020600020905b815481529060010190602001808311611ed357829003601f168201915b5050505050905090565b6000600c60008373ffffffffffffffffffffffffffffffffffffffff1673ffffffffffffffffffffffffffffffffffffffff168152602001908152602001600020549050919050565b60175481565b611f51612efc565b73ffffffffffffffffffffffffffffffffffffffff16611f6f611e3f565b73ffffffffffffffffffffffffffffffffffffffff1614611fc5576040517f08c379a0000000000000000000000000000000000000000000000000000000008152600401611fbc9061462a565b60405180910390fd5b8060169081611fd49190614b90565b5050565b611fe0612bf7565b73ffffffffffffffffffffffffffffffffffffffff168273ffffffffffffffffffffffffffffffffffffffff1603612044576040517fb06307db00000000000000000000000000000000000000000000000000000000815260040160405180910390fd5b8060086000612051612bf7565b73ffffffffffffffffffffffffffffffffffffffff1673ffffffffffffffffffffffffffffffffffffffff16815260200190815260200160002060008473ffffffffffffffffffffffffffffffffffffffff1673ffffffffffffffffffffffffffffffffffffffff16815260200190815260200160002060006101000a81548160ff0219169083151502179055508173ffffffffffffffffffffffffffffffffffffffff166120fe612bf7565b73ffffffffffffffffffffffffffffffffffffffff167f17307eab39ab6107e8899845ad3d59bd9653f200f220920489ca2b5937696c31836040516121439190613ab9565b60405180910390a35050565b6000601754905060008103612199576040517f08c379a000000000000000000000000000000000000000000000000000000000815260040161219090614cae565b60405180910390fd5b601260009054906101000a900460ff166121e8576040517f08c379a00000000000000000000000000000000000000000000000000000000081526004016121df90614d1a565b60405180910390fd5b61155a6103e86121f89190614490565b82612201610f4f565b61220b9190614490565b111561224c576040517f08c379a000000000000000000000000000000000000000000000000000000000815260040161224390614891565b60405180910390fd5b60105482601a60003373ffffffffffffffffffffffffffffffffffffffff1673ffffffffffffffffffffffffffffffffffffffff1681526020019081526020016000205461229a9190614490565b11156122db576040517f08c379a00000000000000000000000000000000000000000000000000000000081526004016122d290614dac565b60405180910390fd5b81816122e791906148b1565b341015612329576040517f08c379a000000000000000000000000000000000000000000000000000000000815260040161232090614957565b60405180910390fd5b81601a60003373ffffffffffffffffffffffffffffffffffffffff1673ffffffffffffffffffffffffffffffffffffffff16815260200190815260200160002060008282546123789190614490565b925050819055506123898383612f8a565b505050565b612399848484611110565b60008373ffffffffffffffffffffffffffffffffffffffff163b146123fb576123c48484848461306c565b6123fa576040517fd1a57ed600000000000000000000000000000000000000000000000000000000815260040160405180910390fd5b5b50505050565b60135481565b61240f612efc565b73ffffffffffffffffffffffffffffffffffffffff1661242d611e3f565b73ffffffffffffffffffffffffffffffffffffffff1614612483576040517f08c379a000000000000000000000000000000000000000000000000000000000815260040161247a9061462a565b60405180910390fd5b601260019054906101000a900460ff1615601260016101000a81548160ff021916908315150217905550565b601580546124bc9061439e565b80601f01602080910402602001604051908101604052809291908181526020018280546124e89061439e565b80156125355780601f1061250a57610100808354040283529160200191612535565b820191906000526020600020905b81548152906001019060200180831161251857829003601f168201915b505050505081565b606061254882612b98565b612587576040517f08c379a000000000000000000000000000000000000000000000000000000000815260040161257e90614e3e565b60405180910390fd5b60001515601260029054906101000a900460ff1615150361263457601480546125af9061439e565b80601f01602080910402602001604051908101604052809291908181526020018280546125db9061439e565b80156126285780601f106125fd57610100808354040283529160200191612628565b820191906000526020600020905b81548152906001019060200180831161260b57829003601f168201915b5050505050905061275a565b6000601b600084815260200190815260200160002080546126549061439e565b80601f01602080910402602001604051908101604052809291908181526020018280546126809061439e565b80156126cd5780601f106126a2576101008083540402835291602001916126cd565b820191906000526020600020905b8154815290600101906020018083116126b057829003601f168201915b5050505050905060006126de6131bc565b905060008151036126f357819250505061275a565b600082511115612728578082604051602001612710929190614e9a565b6040516020818303038152906040529250505061275a565b806127328561324e565b601560405160200161274693929190614f41565b604051602081830303815290604052925050505b919050565b612767612efc565b73ffffffffffffffffffffffffffffffffffffffff16612785611e3f565b73ffffffffffffffffffffffffffffffffffffffff16146127db576040517f08c379a00000000000000000000000000000000000000000000000000000000081526004016127d29061462a565b60405180910390fd5b611a0a816127e7610f4f565b6127f19190614490565b1115612832576040517f08c379a000000000000000000000000000000000000000000000000000000000815260040161282990614fbe565b60405180910390fd5b61283c8282612f8a565b5050565b6000600b60008373ffffffffffffffffffffffffffffffffffffffff1673ffffffffffffffffffffffffffffffffffffffff168152602001908152602001600020549050919050565b6000600e60008373ffffffffffffffffffffffffffffffffffffffff1673ffffffffffffffffffffffffffffffffffffffff168152602001908152602001600020549050919050565b60006129276128e0856133ae565b848480806020026020016040519081016040528093929190818152602001838360200280828437600081840152601f19601f820116905080830192505050505050506133de565b90509392505050565b601260019054906101000a900460ff1681565b6000600a54905090565b6000600860008473ffffffffffffffffffffffffffffffffffffffff1673ffffffffffffffffffffffffffffffffffffffff16815260200190815260200160002060008373ffffffffffffffffffffffffffffffffffffffff1673ffffffffffffffffffffffffffffffffffffffff16815260200190815260200160002060009054906101000a900460ff16905092915050565b60115481565b601260009054906101000a900460ff1681565b612a02612efc565b73ffffffffffffffffffffffffffffffffffffffff16612a20611e3f565b73ffffffffffffffffffffffffffffffffffffffff1614612a76576040517f08c379a0000000000000000000000000000000000000000000000000000000008152600401612a6d9061462a565b60405180910390fd5b8060149081612a859190614b90565b5050565b612a91612efc565b73ffffffffffffffffffffffffffffffffffffffff16612aaf611e3f565b73ffffffffffffffffffffffffffffffffffffffff1614612b05576040517f08c379a0000000000000000000000000000000000000000000000000000000008152600401612afc9061462a565b60405180910390fd5b600073ffffffffffffffffffffffffffffffffffffffff168173ffffffffffffffffffffffffffffffffffffffff1603612b74576040517f08c379a0000000000000000000000000000000000000000000000000000000008152600401612b6b90615050565b60405180910390fd5b612b7d81612fa8565b50565b60196020528060005260406000206000915090505481565b600081612ba3612bff565b11158015612bb2575060015482105b8015612bf0575060007c0100000000000000000000000000000000000000000000000000000000600560008581526020019081526020016000205416145b9050919050565b600033905090565b600090565b600081600954600b60008773ffffffffffffffffffffffffffffffffffffffff1673ffffffffffffffffffffffffffffffffffffffff1681526020019081526020016000205485612c5591906148b1565b612c5f919061509f565b612c6991906150d0565b90509392505050565b80471015612cb5576040517f08c379a0000000000000000000000000000000000000000000000000000000008152600401612cac90615150565b60405180910390fd5b60008273ffffffffffffffffffffffffffffffffffffffff1682604051612cdb906151a1565b60006040518083038185875af1925050503d8060008114612d18576040519150601f19603f3d011682016040523d82523d6000602084013e612d1d565b606091505b5050905080612d61576040517f08c379a0000000000000000000000000000000000000000000000000000000008152600401612d5890615228565b60405180910390fd5b505050565b60008082905080612d75612bff565b11612dfb57600154811015612dfa5760006005600083815260200190815260200160002054905060007c0100000000000000000000000000000000000000000000000000000000821603612df8575b60008103612dee576005600083600190039350838152602001908152602001600020549050612dc4565b8092505050612e2d565b505b5b6040517fdf2d9b4200000000000000000000000000000000000000000000000000000000815260040160405180910390fd5b919050565b60008060006007600085815260200190815260200160002090508092508254915050915091565b600073ffffffffffffffffffffffffffffffffffffffff8316925073ffffffffffffffffffffffffffffffffffffffff821691508382148383141790509392505050565b50505050565b60008060e883901c905060e8612eba8686846133f5565b62ffffff16901b9150509392505050565b600073ffffffffffffffffffffffffffffffffffffffff83169250814260a01b178317905092915050565b50505050565b600033905090565b612f858363a9059cbb60e01b8484604051602401612f2392919061468c565b604051602081830303815290604052907bffffffffffffffffffffffffffffffffffffffffffffffffffffffff19166020820180517bffffffffffffffffffffffffffffffffffffffffffffffffffffffff83818316178352505050506133fe565b505050565b612fa48282604051806020016040528060008152506134c5565b5050565b60008060009054906101000a900473ffffffffffffffffffffffffffffffffffffffff169050816000806101000a81548173ffffffffffffffffffffffffffffffffffffffff021916908373ffffffffffffffffffffffffffffffffffffffff1602179055508173ffffffffffffffffffffffffffffffffffffffff168173ffffffffffffffffffffffffffffffffffffffff167f8be0079c531659141344cd1fd0a4f28419497f9722a3daafe3b4186f6b6457e060405160405180910390a35050565b60008373ffffffffffffffffffffffffffffffffffffffff1663150b7a02613092612bf7565b8786866040518563ffffffff1660e01b81526004016130b4949392919061529d565b6020604051808303816000875af19250505080156130f057506040513d601f19601f820116820180604052508101906130ed91906152fe565b60015b613169573d8060008114613120576040519150601f19603f3d011682016040523d82523d6000602084013e613125565b606091505b506000815103613161576040517fd1a57ed600000000000000000000000000000000000000000000000000000000815260040160405180910390fd5b805181602001fd5b63150b7a0260e01b7bffffffffffffffffffffffffffffffffffffffffffffffffffffffff1916817bffffffffffffffffffffffffffffffffffffffffffffffffffffffff191614915050949350505050565b6060601680546131cb9061439e565b80601f01602080910402602001604051908101604052809291908181526020018280546131f79061439e565b80156132445780601f1061321957610100808354040283529160200191613244565b820191906000526020600020905b81548152906001019060200180831161322757829003601f168201915b5050505050905090565b606060008203613295576040518060400160405280600181526020017f300000000000000000000000000000000000000000000000000000000000000081525090506133a9565b600082905060005b600082146132c75780806132b090614977565b915050600a826132c0919061509f565b915061329d565b60008167ffffffffffffffff8111156132e3576132e2613f9e565b5b6040519080825280601f01601f1916602001820160405280156133155781602001600182028036833780820191505090505b5090505b600085146133a25760018261332e91906150d0565b9150600a8561333d919061532b565b60306133499190614490565b60f81b81838151811061335f5761335e6149bf565b5b60200101907effffffffffffffffffffffffffffffffffffffffffffffffffffffffffffff1916908160001a905350600a8561339b919061509f565b9450613319565b8093505050505b919050565b6000816040516020016133c191906153a4565b604051602081830303815290604052805190602001209050919050565b60006133ed8260185485613563565b905092915050565b60009392505050565b6000613460826040518060400160405280602081526020017f5361666545524332303a206c6f772d6c6576656c2063616c6c206661696c65648152508573ffffffffffffffffffffffffffffffffffffffff1661357a9092919063ffffffff16565b90506000815111156134c0578080602001905181019061348091906153d4565b6134bf576040517f08c379a00000000000000000000000000000000000000000000000000000000081526004016134b690615473565b60405180910390fd5b5b505050565b6134cf8383613592565b60008373ffffffffffffffffffffffffffffffffffffffff163b1461355e5760006001549050600083820390505b613510600086838060010194508661306c565b613546576040517fd1a57ed600000000000000000000000000000000000000000000000000000000815260040160405180910390fd5b8181106134fd57816001541461355b57600080fd5b50505b505050565b600082613570858461374e565b1490509392505050565b606061358984846000856137c3565b90509392505050565b60006001549050600082036135d3576040517fb562e8dd00000000000000000000000000000000000000000000000000000000815260040160405180910390fd5b6135e06000848385612e9d565b600160406001901b178202600660008573ffffffffffffffffffffffffffffffffffffffff1673ffffffffffffffffffffffffffffffffffffffff16815260200190815260200160002060008282540192505081905550613657836136486000866000612ea3565b613651856138d7565b17612ecb565b6005600083815260200190815260200160002081905550600080838301905073ffffffffffffffffffffffffffffffffffffffff85169150828260007fddf252ad1be2c89b69c2b068fc378daa952ba7f163c4a11628f55a4df523b3ef600080a4600183015b8181146136f857808360007fddf252ad1be2c89b69c2b068fc378daa952ba7f163c4a11628f55a4df523b3ef600080a46001810190506136bd565b5060008203613733576040517f2e07630000000000000000000000000000000000000000000000000000000000815260040160405180910390fd5b8060018190555050506137496000848385612ef6565b505050565b60008082905060005b84518110156137b8576000858281518110613775576137746149bf565b5b602002602001015190508083116137975761379083826138e7565b92506137a4565b6137a181846138e7565b92505b5080806137b090614977565b915050613757565b508091505092915050565b606082471015613808576040517f08c379a00000000000000000000000000000000000000000000000000000000081526004016137ff90615505565b60405180910390fd5b613811856138fe565b613850576040517f08c379a000000000000000000000000000000000000000000000000000000000815260040161384790615571565b60405180910390fd5b6000808673ffffffffffffffffffffffffffffffffffffffff16858760405161387991906155c2565b60006040518083038185875af1925050503d80600081146138b6576040519150601f19603f3d011682016040523d82523d6000602084013e6138bb565b606091505b50915091506138cb828286613921565b92505050949350505050565b60006001821460e11b9050919050565b600082600052816020526040600020905092915050565b6000808273ffffffffffffffffffffffffffffffffffffffff163b119050919050565b6060831561393157829050613981565b6000835111156139445782518084602001fd5b816040517f08c379a00000000000000000000000000000000000000000000000000000000081526004016139789190613b53565b60405180910390fd5b9392505050565b600082825260208201905092915050565b7f4f6e6c7920696620796f75206d696e7400000000000000000000000000000000600082015250565b60006139cf601083613988565b91506139da82613999565b602082019050919050565b600060208201905081810360008301526139fe816139c2565b9050919050565b6000604051905090565b600080fd5b600080fd5b60007fffffffff0000000000000000000000000000000000000000000000000000000082169050919050565b613a4e81613a19565b8114613a5957600080fd5b50565b600081359050613a6b81613a45565b92915050565b600060208284031215613a8757613a86613a0f565b5b6000613a9584828501613a5c565b91505092915050565b60008115159050919050565b613ab381613a9e565b82525050565b6000602082019050613ace6000830184613aaa565b92915050565b600081519050919050565b60005b83811015613afd578082015181840152602081019050613ae2565b60008484015250505050565b6000601f19601f8301169050919050565b6000613b2582613ad4565b613b2f8185613988565b9350613b3f818560208601613adf565b613b4881613b09565b840191505092915050565b60006020820190508181036000830152613b6d8184613b1a565b905092915050565b6000819050919050565b613b8881613b75565b8114613b9357600080fd5b50565b600081359050613ba581613b7f565b92915050565b600060208284031215613bc157613bc0613a0f565b5b6000613bcf84828501613b96565b91505092915050565b600073ffffffffffffffffffffffffffffffffffffffff82169050919050565b6000613c0382613bd8565b9050919050565b613c1381613bf8565b82525050565b6000602082019050613c2e6000830184613c0a565b92915050565b613c3d81613bf8565b8114613c4857600080fd5b50565b600081359050613c5a81613c34565b92915050565b60008060408385031215613c7757613c76613a0f565b5b6000613c8585828601613c4b565b9250506020613c9685828601613b96565b9150509250929050565b613ca981613b75565b82525050565b6000602082019050613cc46000830184613ca0565b92915050565b6000613cd582613bd8565b9050919050565b613ce581613cca565b8114613cf057600080fd5b50565b600081359050613d0281613cdc565b92915050565b600060208284031215613d1e57613d1d613a0f565b5b6000613d2c84828501613cf3565b91505092915050565b600080600060608486031215613d4e57613d4d613a0f565b5b6000613d5c86828701613c4b565b9350506020613d6d86828701613c4b565b9250506040613d7e86828701613b96565b9150509250925092565b6000819050919050565b613d9b81613d88565b82525050565b6000602082019050613db66000830184613d92565b92915050565b6000613dc782613bf8565b9050919050565b613dd781613dbc565b8114613de257600080fd5b50565b600081359050613df481613dce565b92915050565b60008060408385031215613e1157613e10613a0f565b5b6000613e1f85828601613de5565b9250506020613e3085828601613c4b565b9150509250929050565b600080fd5b600080fd5b600080fd5b60008083601f840112613e5f57613e5e613e3a565b5b8235905067ffffffffffffffff811115613e7c57613e7b613e3f565b5b602083019150836020820283011115613e9857613e97613e44565b5b9250929050565b60008060008060608587031215613eb957613eb8613a0f565b5b6000613ec787828801613c4b565b9450506020613ed887828801613b96565b935050604085013567ffffffffffffffff811115613ef957613ef8613a14565b5b613f0587828801613e49565b925092505092959194509250565b600060208284031215613f2957613f28613a0f565b5b6000613f3784828501613c4b565b91505092915050565b613f4981613d88565b8114613f5457600080fd5b50565b600081359050613f6681613f40565b92915050565b600060208284031215613f8257613f81613a0f565b5b6000613f9084828501613f57565b91505092915050565b600080fd5b7f4e487b7100000000000000000000000000000000000000000000000000000000600052604160045260246000fd5b613fd682613b09565b810181811067ffffffffffffffff82111715613ff557613ff4613f9e565b5b80604052505050565b6000614008613a05565b90506140148282613fcd565b919050565b600067ffffffffffffffff82111561403457614033613f9e565b5b61403d82613b09565b9050602081019050919050565b82818337600083830152505050565b600061406c61406784614019565b613ffe565b90508281526020810184848401111561408857614087613f99565b5b61409384828561404a565b509392505050565b600082601f8301126140b0576140af613e3a565b5b81356140c0848260208601614059565b91505092915050565b6000602082840312156140df576140de613a0f565b5b600082013567ffffffffffffffff8111156140fd576140fc613a14565b5b6141098482850161409b565b91505092915050565b61411b81613a9e565b811461412657600080fd5b50565b60008135905061413881614112565b92915050565b6000806040838503121561415557614154613a0f565b5b600061416385828601613c4b565b925050602061417485828601614129565b9150509250929050565b600067ffffffffffffffff82111561419957614198613f9e565b5b6141a282613b09565b9050602081019050919050565b60006141c26141bd8461417e565b613ffe565b9050828152602081018484840111156141de576141dd613f99565b5b6141e984828561404a565b509392505050565b600082601f83011261420657614205613e3a565b5b81356142168482602086016141af565b91505092915050565b6000806000806080858703121561423957614238613a0f565b5b600061424787828801613c4b565b945050602061425887828801613c4b565b935050604061426987828801613b96565b925050606085013567ffffffffffffffff81111561428a57614289613a14565b5b614296878288016141f1565b91505092959194509250565b6000602082840312156142b8576142b7613a0f565b5b60006142c684828501613de5565b91505092915050565b6000806000604084860312156142e8576142e7613a0f565b5b60006142f686828701613c4b565b935050602084013567ffffffffffffffff81111561431757614316613a14565b5b61432386828701613e49565b92509250509250925092565b6000806040838503121561434657614345613a0f565b5b600061435485828601613c4b565b925050602061436585828601613c4b565b9150509250929050565b7f4e487b7100000000000000000000000000000000000000000000000000000000600052602260045260246000fd5b600060028204905060018216806143b657607f821691505b6020821081036143c9576143c861436f565b5b50919050565b7f5061796d656e7453706c69747465723a206163636f756e7420686173206e6f2060008201527f7368617265730000000000000000000000000000000000000000000000000000602082015250565b600061442b602683613988565b9150614436826143cf565b604082019050919050565b6000602082019050818103600083015261445a8161441e565b9050919050565b7f4e487b7100000000000000000000000000000000000000000000000000000000600052601160045260246000fd5b600061449b82613b75565b91506144a683613b75565b92508282019050808211156144be576144bd614461565b5b92915050565b7f5061796d656e7453706c69747465723a206163636f756e74206973206e6f742060008201527f647565207061796d656e74000000000000000000000000000000000000000000602082015250565b6000614520602b83613988565b915061452b826144c4565b604082019050919050565b6000602082019050818103600083015261454f81614513565b9050919050565b6000819050919050565b600061457b61457661457184613bd8565b614556565b613bd8565b9050919050565b600061458d82614560565b9050919050565b600061459f82614582565b9050919050565b6145af81614594565b82525050565b60006040820190506145ca60008301856145a6565b6145d76020830184613ca0565b9392505050565b7f4f776e61626c653a2063616c6c6572206973206e6f7420746865206f776e6572600082015250565b6000614614602083613988565b915061461f826145de565b602082019050919050565b6000602082019050818103600083015261464381614607565b9050919050565b60008151905061465981613b7f565b92915050565b60006020828403121561467557614674613a0f565b5b60006146838482850161464a565b91505092915050565b60006040820190506146a16000830185613c0a565b6146ae6020830184613ca0565b9392505050565b7f57686974656c6973742053616c6520686173206e6f742061637469766174656460008201527f2079657400000000000000000000000000000000000000000000000000000000602082015250565b6000614711602483613988565b915061471c826146b5565b604082019050919050565b6000602082019050818103600083015261474081614704565b9050919050565b7f4e6f742077686974656c69737465640000000000000000000000000000000000600082015250565b600061477d600f83613988565b915061478882614747565b602082019050919050565b600060208201905081810360008301526147ac81614770565b9050919050565b7f596f752063616e206f6e6c79206765742031204e4654206f6e2074686520576860008201527f6974656c6973742053616c650000000000000000000000000000000000000000602082015250565b600061480f602c83613988565b915061481a826147b3565b604082019050919050565b6000602082019050818103600083015261483e81614802565b9050919050565b7f4d617820737570706c7920657863656564656400000000000000000000000000600082015250565b600061487b601383613988565b915061488682614845565b602082019050919050565b600060208201905081810360008301526148aa8161486e565b9050919050565b60006148bc82613b75565b91506148c783613b75565b9250817fffffffffffffffffffffffffffffffffffffffffffffffffffffffffffffffff0483118215151615614900576148ff614461565b5b828202905092915050565b7f4e6f7420656e6f756768742066756e6473000000000000000000000000000000600082015250565b6000614941601183613988565b915061494c8261490b565b602082019050919050565b6000602082019050818103600083015261497081614934565b9050919050565b600061498282613b75565b91507fffffffffffffffffffffffffffffffffffffffffffffffffffffffffffffffff82036149b4576149b3614461565b5b600182019050919050565b7f4e487b7100000000000000000000000000000000000000000000000000000000600052603260045260246000fd5b60008190508160005260206000209050919050565b60006020601f8301049050919050565b600082821b905092915050565b600060088302614a507fffffffffffffffffffffffffffffffffffffffffffffffffffffffffffffffff82614a13565b614a5a8683614a13565b95508019841693508086168417925050509392505050565b6000614a8d614a88614a8384613b75565b614556565b613b75565b9050919050565b6000819050919050565b614aa783614a72565b614abb614ab382614a94565b848454614a20565b825550505050565b600090565b614ad0614ac3565b614adb818484614a9e565b505050565b5b81811015614aff57614af4600082614ac8565b600181019050614ae1565b5050565b601f821115614b4457614b15816149ee565b614b1e84614a03565b81016020851015614b2d578190505b614b41614b3985614a03565b830182614ae0565b50505b505050565b600082821c905092915050565b6000614b6760001984600802614b49565b1980831691505092915050565b6000614b808383614b56565b9150826002028217905092915050565b614b9982613ad4565b67ffffffffffffffff811115614bb257614bb1613f9e565b5b614bbc825461439e565b614bc7828285614b03565b600060209050601f831160018114614bfa5760008415614be8578287015190505b614bf28582614b74565b865550614c5a565b601f198416614c08866149ee565b60005b82811015614c3057848901518255600182019150602085019450602081019050614c0b565b86831015614c4d5784890151614c49601f891682614b56565b8355505b6001600288020188555050505b505050505050565b7f5072696365206973203000000000000000000000000000000000000000000000600082015250565b6000614c98600a83613988565b9150614ca382614c62565b602082019050919050565b60006020820190508181036000830152614cc781614c8b565b9050919050565b7f5075626c69632073616c65206973206e6f742061637469766174656400000000600082015250565b6000614d04601c83613988565b9150614d0f82614cce565b602082019050919050565b60006020820190508181036000830152614d3381614cf7565b9050919050565b7f596f752063616e206f6e6c7920676574203130204e4654206f6e20746865205060008201527f75626c69632053616c6500000000000000000000000000000000000000000000602082015250565b6000614d96602a83613988565b9150614da182614d3a565b604082019050919050565b60006020820190508181036000830152614dc581614d89565b9050919050565b7f4552433732314d657461646174613a2055524920717565727920666f72206e6f60008201527f6e6578697374656e7420746f6b656e0000000000000000000000000000000000602082015250565b6000614e28602f83613988565b9150614e3382614dcc565b604082019050919050565b60006020820190508181036000830152614e5781614e1b565b9050919050565b600081905092915050565b6000614e7482613ad4565b614e7e8185614e5e565b9350614e8e818560208601613adf565b80840191505092915050565b6000614ea68285614e69565b9150614eb28284614e69565b91508190509392505050565b60008154614ecb8161439e565b614ed58186614e5e565b94506001821660008114614ef05760018114614f0557614f38565b60ff1983168652811515820286019350614f38565b614f0e856149ee565b60005b83811015614f3057815481890152600182019150602081019050614f11565b838801955050505b50505092915050565b6000614f4d8286614e69565b9150614f598285614e69565b9150614f658284614ebe565b9150819050949350505050565b7f52656163686564206d617820537570706c790000000000000000000000000000600082015250565b6000614fa8601283613988565b9150614fb382614f72565b602082019050919050565b60006020820190508181036000830152614fd781614f9b565b9050919050565b7f4f776e61626c653a206e6577206f776e657220697320746865207a65726f206160008201527f6464726573730000000000000000000000000000000000000000000000000000602082015250565b600061503a602683613988565b915061504582614fde565b604082019050919050565b600060208201905081810360008301526150698161502d565b9050919050565b7f4e487b7100000000000000000000000000000000000000000000000000000000600052601260045260246000fd5b60006150aa82613b75565b91506150b583613b75565b9250826150c5576150c4615070565b5b828204905092915050565b60006150db82613b75565b91506150e683613b75565b92508282039050818111156150fe576150fd614461565b5b92915050565b7f416464726573733a20696e73756666696369656e742062616c616e6365000000600082015250565b600061513a601d83613988565b915061514582615104565b602082019050919050565b600060208201905081810360008301526151698161512d565b9050919050565b600081905092915050565b50565b600061518b600083615170565b91506151968261517b565b600082019050919050565b60006151ac8261517e565b9150819050919050565b7f416464726573733a20756e61626c6520746f2073656e642076616c75652c207260008201527f6563697069656e74206d61792068617665207265766572746564000000000000602082015250565b6000615212603a83613988565b915061521d826151b6565b604082019050919050565b6000602082019050818103600083015261524181615205565b9050919050565b600081519050919050565b600082825260208201905092915050565b600061526f82615248565b6152798185615253565b9350615289818560208601613adf565b61529281613b09565b840191505092915050565b60006080820190506152b26000830187613c0a565b6152bf6020830186613c0a565b6152cc6040830185613ca0565b81810360608301526152de8184615264565b905095945050505050565b6000815190506152f881613a45565b92915050565b60006020828403121561531457615313613a0f565b5b6000615322848285016152e9565b91505092915050565b600061533682613b75565b915061534183613b75565b92508261535157615350615070565b5b828206905092915050565b60008160601b9050919050565b60006153748261535c565b9050919050565b600061538682615369565b9050919050565b61539e61539982613bf8565b61537b565b82525050565b60006153b0828461538d565b60148201915081905092915050565b6000815190506153ce81614112565b92915050565b6000602082840312156153ea576153e9613a0f565b5b60006153f8848285016153bf565b91505092915050565b7f5361666545524332303a204552433230206f7065726174696f6e20646964206e60008201527f6f74207375636365656400000000000000000000000000000000000000000000602082015250565b600061545d602a83613988565b915061546882615401565b604082019050919050565b6000602082019050818103600083015261548c81615450565b9050919050565b7f416464726573733a20696e73756666696369656e742062616c616e636520666f60008201527f722063616c6c0000000000000000000000000000000000000000000000000000602082015250565b60006154ef602683613988565b91506154fa82615493565b604082019050919050565b6000602082019050818103600083015261551e816154e2565b9050919050565b7f416464726573733a2063616c6c20746f206e6f6e2d636f6e7472616374000000600082015250565b600061555b601d83613988565b915061556682615525565b602082019050919050565b6000602082019050818103600083015261558a8161554e565b9050919050565b600061559c82615248565b6155a68185615170565b93506155b6818560208601613adf565b80840191505092915050565b60006155ce8284615591565b91508190509291505056fea2646970667358221220b2a28a1f7644fbbf0a81fa9744274e7a8949378ee9af28d6b93514e36a60966e64736f6c63430008100033",
  "linkReferences": {},
  "deployedLinkReferences": {}
}